{
  "address": "0x94F6c38cb6Df8Cf05510ef9e3eA7a8f9cE6cE5F6",
  "abi": [
    {
      "inputs": [
        {
          "internalType": "uint256",
          "name": "interval",
          "type": "uint256"
        }
      ],
      "stateMutability": "nonpayable",
      "type": "constructor"
    },
    {
      "inputs": [],
      "name": "DRM__AddressHasRightsAlready",
      "type": "error"
    },
    {
      "inputs": [],
      "name": "DRM__LicenseDoesNotExistsForThisUser",
      "type": "error"
    },
    {
      "inputs": [],
      "name": "DRM__LicenseNotExpiredYetForThisUser",
      "type": "error"
    },
    {
      "inputs": [],
      "name": "DRM__NotEnoughETH",
      "type": "error"
    },
    {
      "inputs": [],
      "name": "DRM__NotTokenOwner",
      "type": "error"
    },
    {
      "inputs": [],
      "name": "DRM__NothingToWithdraw",
      "type": "error"
    },
    {
      "inputs": [],
      "name": "DRM__TokenAlreadyAllowed",
      "type": "error"
    },
    {
      "inputs": [],
      "name": "DRM__TokenAlreadyBlocked",
      "type": "error"
    },
    {
      "inputs": [],
      "name": "DRM__TokenNotBorrowable",
      "type": "error"
    },
    {
      "inputs": [],
      "name": "DRM__TokenNotValid",
      "type": "error"
    },
    {
      "inputs": [],
      "name": "DRM__TransferFailed",
      "type": "error"
    },
    {
      "inputs": [],
      "name": "DRM__UpkeepNotNeeded",
      "type": "error"
    },
    {
      "anonymous": false,
      "inputs": [
        {
          "indexed": true,
          "internalType": "address",
          "name": "owner",
          "type": "address"
        },
        {
          "indexed": true,
          "internalType": "address",
          "name": "borrower",
          "type": "address"
        },
        {
          "indexed": false,
          "internalType": "string",
          "name": "statement",
          "type": "string"
        },
        {
          "indexed": false,
          "internalType": "string",
          "name": "expiration",
          "type": "string"
        },
        {
          "indexed": true,
          "internalType": "uint256",
          "name": "id",
          "type": "uint256"
        }
      ],
      "name": "ClauseCreated",
      "type": "event"
    },
    {
      "anonymous": false,
      "inputs": [
        {
          "indexed": true,
          "internalType": "bool",
          "name": "performed",
          "type": "bool"
        }
      ],
      "name": "ExpiredLicensesRemoved",
      "type": "event"
    },
    {
      "anonymous": false,
      "inputs": [
        {
          "indexed": true,
          "internalType": "uint256",
          "name": "price",
          "type": "uint256"
        },
        {
          "indexed": true,
          "internalType": "uint256",
          "name": "id",
          "type": "uint256"
        }
      ],
      "name": "LendingAllowed",
      "type": "event"
    },
    {
      "anonymous": false,
      "inputs": [
        {
          "indexed": true,
          "internalType": "uint256",
          "name": "id",
          "type": "uint256"
        }
      ],
      "name": "LendingBlocked",
      "type": "event"
    },
    {
      "anonymous": false,
      "inputs": [
        {
          "indexed": true,
          "internalType": "uint256",
          "name": "end",
          "type": "uint256"
        },
        {
          "indexed": false,
          "internalType": "bool",
          "name": "validity",
          "type": "bool"
        },
        {
          "indexed": true,
          "internalType": "uint256",
          "name": "id",
          "type": "uint256"
        }
      ],
      "name": "LendingLicenseCreated",
      "type": "event"
    },
    {
      "anonymous": false,
      "inputs": [
        {
          "indexed": true,
          "internalType": "address",
          "name": "borrower",
          "type": "address"
        },
        {
          "indexed": true,
          "internalType": "uint256",
          "name": "id",
          "type": "uint256"
        }
      ],
      "name": "LicenseRemoved",
      "type": "event"
    },
    {
      "anonymous": false,
      "inputs": [
        {
          "indexed": false,
          "internalType": "address",
          "name": "owner",
          "type": "address"
        },
        {
          "indexed": false,
          "internalType": "uint256",
          "name": "tokenId",
          "type": "uint256"
        }
      ],
      "name": "Minted",
      "type": "event"
    },
    {
      "anonymous": false,
      "inputs": [
        {
          "indexed": true,
          "internalType": "address",
          "name": "previousOwner",
          "type": "address"
        },
        {
          "indexed": true,
          "internalType": "address",
          "name": "newOwner",
          "type": "address"
        }
      ],
      "name": "OwnershipTransferred",
      "type": "event"
    },
    {
      "anonymous": false,
      "inputs": [
        {
          "indexed": true,
          "internalType": "uint256",
          "name": "amount",
          "type": "uint256"
        },
        {
          "indexed": true,
          "internalType": "address",
          "name": "lender",
          "type": "address"
        },
        {
          "indexed": true,
          "internalType": "bool",
          "name": "transfer",
          "type": "bool"
        }
      ],
      "name": "ProceedsWithdrawal",
      "type": "event"
    },
    {
      "anonymous": false,
      "inputs": [
        {
          "indexed": false,
          "internalType": "address",
          "name": "owner",
          "type": "address"
        },
        {
          "indexed": false,
          "internalType": "uint256",
          "name": "tokenId",
          "type": "uint256"
        }
      ],
      "name": "Revoked",
      "type": "event"
    },
    {
      "anonymous": false,
      "inputs": [
        {
          "indexed": false,
          "internalType": "string",
          "name": "uri",
          "type": "string"
        },
        {
          "indexed": true,
          "internalType": "uint256",
          "name": "id",
          "type": "uint256"
        }
      ],
      "name": "TokenUriSet",
      "type": "event"
    },
    {
      "inputs": [
        {
          "internalType": "uint256",
          "name": "tokenId",
          "type": "uint256"
        },
        {
          "internalType": "uint256",
          "name": "price",
          "type": "uint256"
        }
      ],
      "name": "allowLending",
      "outputs": [],
      "stateMutability": "nonpayable",
      "type": "function"
    },
    {
      "inputs": [
        {
          "internalType": "address",
          "name": "owner",
          "type": "address"
        }
      ],
      "name": "balanceOf",
      "outputs": [
        {
          "internalType": "uint256",
          "name": "",
          "type": "uint256"
        }
      ],
      "stateMutability": "view",
      "type": "function"
    },
    {
      "inputs": [
        {
          "internalType": "uint256",
          "name": "tokenId",
          "type": "uint256"
        }
      ],
      "name": "blockLending",
      "outputs": [],
      "stateMutability": "nonpayable",
      "type": "function"
    },
    {
      "inputs": [
        {
          "internalType": "uint256",
          "name": "tokenId",
          "type": "uint256"
        },
        {
          "internalType": "uint256",
          "name": "lendingTime",
          "type": "uint256"
        },
        {
          "internalType": "address",
          "name": "borrower",
          "type": "address"
        }
      ],
      "name": "buyLicense",
      "outputs": [],
      "stateMutability": "payable",
      "type": "function"
    },
    {
      "inputs": [
        {
          "internalType": "bytes",
          "name": "",
          "type": "bytes"
        }
      ],
      "name": "checkUpkeep",
      "outputs": [
        {
          "internalType": "bool",
          "name": "upkeepNeeded",
          "type": "bool"
        },
        {
          "internalType": "bytes",
          "name": "",
          "type": "bytes"
        }
      ],
      "stateMutability": "view",
      "type": "function"
    },
    {
      "inputs": [],
      "name": "emittedCount",
      "outputs": [
        {
          "internalType": "uint256",
          "name": "",
          "type": "uint256"
        }
      ],
      "stateMutability": "view",
      "type": "function"
    },
    {
      "inputs": [
        {
          "internalType": "uint256",
          "name": "tokenId",
          "type": "uint256"
        }
      ],
      "name": "getCertificatePrice",
      "outputs": [
        {
          "internalType": "uint256",
          "name": "",
          "type": "uint256"
        }
      ],
      "stateMutability": "view",
      "type": "function"
    },
    {
      "inputs": [
        {
          "internalType": "uint256",
          "name": "tokenId",
          "type": "uint256"
        }
      ],
      "name": "getCertsBorrowers",
      "outputs": [
        {
          "internalType": "address[]",
          "name": "",
          "type": "address[]"
        }
      ],
      "stateMutability": "view",
      "type": "function"
    },
    {
      "inputs": [
        {
          "internalType": "uint256",
          "name": "tokenId",
          "type": "uint256"
        },
        {
          "internalType": "address",
          "name": "borrower",
          "type": "address"
        }
      ],
      "name": "getClause",
      "outputs": [
        {
          "internalType": "string",
          "name": "",
          "type": "string"
        }
      ],
      "stateMutability": "view",
      "type": "function"
    },
    {
      "inputs": [
        {
          "internalType": "uint256",
          "name": "tokenId",
          "type": "uint256"
        },
        {
          "internalType": "address",
          "name": "borrower",
          "type": "address"
        }
      ],
      "name": "getExpirationTime",
      "outputs": [
        {
          "internalType": "uint256",
          "name": "",
          "type": "uint256"
        }
      ],
      "stateMutability": "view",
      "type": "function"
    },
    {
      "inputs": [
        {
          "internalType": "uint256",
          "name": "tokenId",
          "type": "uint256"
        }
      ],
      "name": "getLendingStatus",
      "outputs": [
        {
          "internalType": "bool",
          "name": "",
          "type": "bool"
        }
      ],
      "stateMutability": "view",
      "type": "function"
    },
    {
      "inputs": [
        {
          "internalType": "uint256",
          "name": "tokenId",
          "type": "uint256"
        },
        {
          "internalType": "address",
          "name": "borrower",
          "type": "address"
        }
      ],
      "name": "getLicenseValidity",
      "outputs": [
        {
          "internalType": "bool",
          "name": "",
          "type": "bool"
        }
      ],
      "stateMutability": "view",
      "type": "function"
    },
    {
      "inputs": [
        {
          "internalType": "address",
          "name": "lender",
          "type": "address"
        }
      ],
      "name": "getProceeds",
      "outputs": [
        {
          "internalType": "uint256",
          "name": "",
          "type": "uint256"
        }
      ],
      "stateMutability": "view",
      "type": "function"
    },
    {
      "inputs": [
        {
          "internalType": "address",
          "name": "owner",
          "type": "address"
        }
      ],
      "name": "hasValid",
      "outputs": [
        {
          "internalType": "bool",
          "name": "",
          "type": "bool"
        }
      ],
      "stateMutability": "view",
      "type": "function"
    },
    {
      "inputs": [],
      "name": "holdersCount",
      "outputs": [
        {
          "internalType": "uint256",
          "name": "",
          "type": "uint256"
        }
      ],
      "stateMutability": "view",
      "type": "function"
    },
    {
      "inputs": [
        {
          "internalType": "uint256",
          "name": "tokenId",
          "type": "uint256"
        }
      ],
      "name": "isValid",
      "outputs": [
        {
          "internalType": "bool",
          "name": "",
          "type": "bool"
        }
      ],
      "stateMutability": "view",
      "type": "function"
    },
    {
      "inputs": [
        {
          "internalType": "string",
          "name": "createdTokenURI",
          "type": "string"
        }
      ],
      "name": "mintNFT",
      "outputs": [],
      "stateMutability": "nonpayable",
      "type": "function"
    },
    {
      "inputs": [],
      "name": "name",
      "outputs": [
        {
          "internalType": "string",
          "name": "",
          "type": "string"
        }
      ],
      "stateMutability": "view",
      "type": "function"
    },
    {
      "inputs": [],
      "name": "owner",
      "outputs": [
        {
          "internalType": "address",
          "name": "",
          "type": "address"
        }
      ],
      "stateMutability": "view",
      "type": "function"
    },
    {
      "inputs": [
        {
          "internalType": "uint256",
          "name": "tokenId",
          "type": "uint256"
        }
      ],
      "name": "ownerOf",
      "outputs": [
        {
          "internalType": "address",
          "name": "",
          "type": "address"
        }
      ],
      "stateMutability": "view",
      "type": "function"
    },
    {
      "inputs": [
        {
          "internalType": "bytes",
          "name": "",
          "type": "bytes"
        }
      ],
      "name": "performUpkeep",
      "outputs": [],
      "stateMutability": "nonpayable",
      "type": "function"
    },
    {
      "inputs": [],
      "name": "renounceOwnership",
      "outputs": [],
      "stateMutability": "nonpayable",
      "type": "function"
    },
    {
      "inputs": [
        {
          "internalType": "uint256",
          "name": "tokenId",
          "type": "uint256"
        }
      ],
      "name": "revokeCertificate",
      "outputs": [],
      "stateMutability": "nonpayable",
      "type": "function"
    },
    {
      "inputs": [],
      "name": "stakeProceeds",
      "outputs": [],
      "stateMutability": "nonpayable",
      "type": "function"
    },
    {
      "inputs": [
        {
          "internalType": "bytes4",
          "name": "interfaceId",
          "type": "bytes4"
        }
      ],
      "name": "supportsInterface",
      "outputs": [
        {
          "internalType": "bool",
          "name": "",
          "type": "bool"
        }
      ],
      "stateMutability": "view",
      "type": "function"
    },
    {
      "inputs": [],
      "name": "symbol",
      "outputs": [
        {
          "internalType": "string",
          "name": "",
          "type": "string"
        }
      ],
      "stateMutability": "view",
      "type": "function"
    },
    {
      "inputs": [
        {
          "internalType": "uint256",
          "name": "tokenId",
          "type": "uint256"
        }
      ],
      "name": "tokenURI",
      "outputs": [
        {
          "internalType": "string",
          "name": "",
          "type": "string"
        }
      ],
      "stateMutability": "view",
      "type": "function"
    },
    {
      "inputs": [
        {
          "internalType": "address",
          "name": "newOwner",
          "type": "address"
        }
      ],
      "name": "transferOwnership",
      "outputs": [],
      "stateMutability": "nonpayable",
      "type": "function"
    },
    {
      "inputs": [],
      "name": "unStakeProceeds",
      "outputs": [],
      "stateMutability": "nonpayable",
      "type": "function"
    },
    {
      "inputs": [],
      "name": "withdrawProceeds",
      "outputs": [],
      "stateMutability": "payable",
      "type": "function"
    }
  ],
  "transactionHash": "0x18e1bbb4a4148ee309e470ae7b7ae459262c9bc4869271a55e79531a9ca78fbd",
  "args": [
    "30"
  ],
  "numDeployments": 1,
  "solcInputHash": "bc900ae512fe7f70e1771eb8bf1bab4c",
  "bytecode": "0x60a06040523480156200001157600080fd5b5060405162004c6838038062004c68833981810160405281019062000037919062000256565b6040518060400160405280601481526020017f4469676974616c20526967687473204d61796b720000000000000000000000008152506040518060400160405280600381526020017f44524d00000000000000000000000000000000000000000000000000000000008152508160049081620000b49190620004f8565b508060059081620000c69190620004f8565b5033600860006101000a81548173ffffffffffffffffffffffffffffffffffffffff021916908373ffffffffffffffffffffffffffffffffffffffff16021790555050506200012a6200011e6200014860201b60201c565b6200015060201b60201c565b6001600a81905550806080818152505042600b8190555050620005df565b600033905090565b6000600960009054906101000a900473ffffffffffffffffffffffffffffffffffffffff16905081600960006101000a81548173ffffffffffffffffffffffffffffffffffffffff021916908373ffffffffffffffffffffffffffffffffffffffff1602179055508173ffffffffffffffffffffffffffffffffffffffff168173ffffffffffffffffffffffffffffffffffffffff167f8be0079c531659141344cd1fd0a4f28419497f9722a3daafe3b4186f6b6457e060405160405180910390a35050565b600080fd5b6000819050919050565b62000230816200021b565b81146200023c57600080fd5b50565b600081519050620002508162000225565b92915050565b6000602082840312156200026f576200026e62000216565b5b60006200027f848285016200023f565b91505092915050565b600081519050919050565b7f4e487b7100000000000000000000000000000000000000000000000000000000600052604160045260246000fd5b7f4e487b7100000000000000000000000000000000000000000000000000000000600052602260045260246000fd5b600060028204905060018216806200030a57607f821691505b60208210810362000320576200031f620002c2565b5b50919050565b60008190508160005260206000209050919050565b60006020601f8301049050919050565b600082821b905092915050565b6000600883026200038a7fffffffffffffffffffffffffffffffffffffffffffffffffffffffffffffffff826200034b565b6200039686836200034b565b95508019841693508086168417925050509392505050565b6000819050919050565b6000620003d9620003d3620003cd846200021b565b620003ae565b6200021b565b9050919050565b6000819050919050565b620003f583620003b8565b6200040d6200040482620003e0565b84845462000358565b825550505050565b600090565b6200042462000415565b62000431818484620003ea565b505050565b5b8181101562000459576200044d6000826200041a565b60018101905062000437565b5050565b601f821115620004a857620004728162000326565b6200047d846200033b565b810160208510156200048d578190505b620004a56200049c856200033b565b83018262000436565b50505b505050565b600082821c905092915050565b6000620004cd60001984600802620004ad565b1980831691505092915050565b6000620004e88383620004ba565b9150826002028217905092915050565b620005038262000288565b67ffffffffffffffff8111156200051f576200051e62000293565b5b6200052b8254620002f1565b620005388282856200045d565b600060209050601f8311600181146200057057600084156200055b578287015190505b620005678582620004da565b865550620005d7565b601f198416620005808662000326565b60005b82811015620005aa5784890151825560018201915060208501945060208101905062000583565b86831015620005ca5784890151620005c6601f891682620004ba565b8355505b6001600288020188555050505b505050505050565b60805161466d620005fb60003960006110df015261466d6000f3fe6080604052600436106101cd5760003560e01c80636e04ff0d116100f7578063b0739e9c11610095578063f2fde38b11610064578063f2fde38b14610695578063f577a500146106be578063f7ef774b146106fb578063fb37e88314610738576101cd565b8063b0739e9c146105c2578063c87b56dd146105ff578063e538b3401461063c578063f277997014610658576101cd565b80638da5cb5b116100d15780638da5cb5b1461054b5780639038e6931461057657806395d89b411461058057806399224106146105ab576101cd565b80636e04ff0d146104b957806370a08231146104f7578063715018a614610534576101cd565b806330cfeda91161016f578063525dc3a61161013e578063525dc3a6146103eb5780635f9c72aa146104145780636352211e146104515780636b4ed21b1461048e576101cd565b806330cfeda91461030b57806343945512146103485780634585e33b146103855780634bbba371146103ae576101cd565b8063104b978d116101ab578063104b978d1461026357806316011e631461027a5780631f33fd63146102b757806326019c18146102e0576101cd565b806301ffc9a7146101d257806306f5497e1461020f57806306fdde0314610238575b600080fd5b3480156101de57600080fd5b506101f960048036038101906101f49190613190565b610761565b60405161020691906131d8565b60405180910390f35b34801561021b57600080fd5b5061023660048036038101906102319190613229565b6108ab565b005b34801561024457600080fd5b5061024d6108bf565b60405161025a91906132e6565b60405180910390f35b34801561026f57600080fd5b50610278610951565b005b34801561028657600080fd5b506102a1600480360381019061029c9190613229565b610953565b6040516102ae91906133f8565b60405180910390f35b3480156102c357600080fd5b506102de60048036038101906102d99190613229565b6109fd565b005b3480156102ec57600080fd5b506102f5610b28565b6040516103029190613429565b60405180910390f35b34801561031757600080fd5b50610332600480360381019061032d9190613470565b610b32565b60405161033f9190613429565b60405180910390f35b34801561035457600080fd5b5061036f600480360381019061036a9190613470565b610b7b565b60405161037c91906131d8565b60405180910390f35b34801561039157600080fd5b506103ac60048036038101906103a79190613502565b610bc6565b005b3480156103ba57600080fd5b506103d560048036038101906103d09190613229565b610e73565b6040516103e29190613429565b60405180910390f35b3480156103f757600080fd5b50610412600480360381019061040d919061354f565b610e98565b005b34801561042057600080fd5b5061043b6004803603810190610436919061358f565b610fce565b60405161044891906131d8565b60405180910390f35b34801561045d57600080fd5b5061047860048036038101906104739190613229565b61103e565b60405161048591906135de565b60405180910390f35b34801561049a57600080fd5b506104a3611074565b6040516104b09190613429565b60405180910390f35b3480156104c557600080fd5b506104e060048036038101906104db9190613729565b61107e565b6040516104ee9291906137c7565b60405180910390f35b34801561050357600080fd5b5061051e60048036038101906105199190613470565b611306565b60405161052b9190613429565b60405180910390f35b34801561054057600080fd5b50610549611352565b005b34801561055757600080fd5b50610560611366565b60405161056d91906135de565b60405180910390f35b61057e611390565b005b34801561058c57600080fd5b5061059561159b565b6040516105a291906132e6565b60405180910390f35b3480156105b757600080fd5b506105c061162d565b005b3480156105ce57600080fd5b506105e960048036038101906105e4919061358f565b61162f565b6040516105f69190613429565b60405180910390f35b34801561060b57600080fd5b5061062660048036038101906106219190613229565b6116ed565b60405161063391906132e6565b60405180910390f35b610656600480360381019061065191906137f7565b6117a5565b005b34801561066457600080fd5b5061067f600480360381019061067a919061358f565b611bf1565b60405161068c91906132e6565b60405180910390f35b3480156106a157600080fd5b506106bc60048036038101906106b79190613470565b611cdd565b005b3480156106ca57600080fd5b506106e560048036038101906106e09190613229565b611d60565b6040516106f291906131d8565b60405180910390f35b34801561070757600080fd5b50610722600480360381019061071d9190613229565b611d83565b60405161072f91906131d8565b60405180910390f35b34801561074457600080fd5b5061075f600480360381019061075a91906138eb565b611db5565b005b60007fa511533d000000000000000000000000000000000000000000000000000000007bffffffffffffffffffffffffffffffffffffffffffffffffffffffff1916827bffffffffffffffffffffffffffffffffffffffffffffffffffffffff1916148061082c57507f5b5e139f000000000000000000000000000000000000000000000000000000007bffffffffffffffffffffffffffffffffffffffffffffffffffffffff1916827bffffffffffffffffffffffffffffffffffffffffffffffffffffffff1916145b8061089457507f4d4f4e03000000000000000000000000000000000000000000000000000000007bffffffffffffffffffffffffffffffffffffffffffffffffffffffff1916827bffffffffffffffffffffffffffffffffffffffffffffffffffffffff1916145b806108a457506108a382611e34565b5b9050919050565b6108b3611e9e565b6108bc81611f1c565b50565b6060600480546108ce90613963565b80601f01602080910402602001604051908101604052809291908181526020018280546108fa90613963565b80156109475780601f1061091c57610100808354040283529160200191610947565b820191906000526020600020905b81548152906001019060200180831161092a57829003601f168201915b5050505050905090565b565b60606000600c60008481526020019081526020016000209050806003018054806020026020016040519081016040528092919081815260200182805480156109f057602002820191906000526020600020905b8160009054906101000a900473ffffffffffffffffffffffffffffffffffffffff1673ffffffffffffffffffffffffffffffffffffffff16815260200190600101908083116109a6575b5050505050915050919050565b610a06816120e7565b506000600c600083815260200190815260200160002090503373ffffffffffffffffffffffffffffffffffffffff16610a3e8361103e565b73ffffffffffffffffffffffffffffffffffffffff1614610a8b576040517f82e537b300000000000000000000000000000000000000000000000000000000815260040160405180910390fd5b600015158160020160009054906101000a900460ff16151503610ada576040517fa18127fb00000000000000000000000000000000000000000000000000000000815260040160405180910390fd5b817fc7b716ed0a741b36dcb658966bd6712610c1355f85ad1b6822bda21d12dea7db60405160405180910390a260008160020160006101000a81548160ff0219169083151502179055505050565b6000600654905090565b6000600d60008373ffffffffffffffffffffffffffffffffffffffff1673ffffffffffffffffffffffffffffffffffffffff168152602001908152602001600020549050919050565b600080600360008473ffffffffffffffffffffffffffffffffffffffff1673ffffffffffffffffffffffffffffffffffffffff16815260200190815260200160002054119050919050565b6000610be06040518060200160405280600081525061107e565b50905080610c1a576040517f4fbf204900000000000000000000000000000000000000000000000000000000815260040160405180910390fd5b6000610c24610b28565b67ffffffffffffffff811115610c3d57610c3c6135fe565b5b604051908082528060200260200182016040528015610c6b5781602001602082028036833780820191505090505b50905060005b610c79610b28565b811015610e3c576000600c600083815260200190815260200160002090508060030180549050838381518110610cb257610cb1613994565b5b602002602001018181525050600115158160020160009054906101000a900460ff161515148015610cfd57506000838381518110610cf357610cf2613994565b5b6020026020010151115b15610e285760006001848481518110610d1957610d18613994565b5b6020026020010151610d2b91906139f2565b90505b60008110610e265742826004016000846003018481548110610d5357610d52613994565b5b9060005260206000200160009054906101000a900473ffffffffffffffffffffffffffffffffffffffff1673ffffffffffffffffffffffffffffffffffffffff1673ffffffffffffffffffffffffffffffffffffffff168152602001908152602001600020541015610e0a57610e0983836003018381548110610dd957610dd8613994565b5b9060005260206000200160009054906101000a900473ffffffffffffffffffffffffffffffffffffffff1661219a565b5b6000810315610e26578080610e1e90613a26565b915050610d2e565b505b508080610e3490613a4f565b915050610c71565b50600115157f83a47186345bb0297912a376a26e9563bbab6eea5eb47e6f0c4b99a2584d3d9560405160405180910390a250505050565b600080600c600084815260200190815260200160002090508060010154915050919050565b610ea1826120e7565b506000600c600084815260200190815260200160002090503373ffffffffffffffffffffffffffffffffffffffff16610ed98461103e565b73ffffffffffffffffffffffffffffffffffffffff1614610f26576040517f82e537b300000000000000000000000000000000000000000000000000000000815260040160405180910390fd5b600115158160020160009054906101000a900460ff16151503610f75576040517f21460fa200000000000000000000000000000000000000000000000000000000815260040160405180910390fd5b82827ff15606de6a0a3065c3c97d5a2f089b2c9d3a8a0755041af789f81beebc95f6c960405160405180910390a381816001018190555060018160020160006101000a81548160ff021916908315150217905550505050565b600080600c600085815260200190815260200160002090508060060160008473ffffffffffffffffffffffffffffffffffffffff1673ffffffffffffffffffffffffffffffffffffffff16815260200190815260200160002060009054906101000a900460ff1691505092915050565b6000611049826120e7565b60010160009054906101000a900473ffffffffffffffffffffffffffffffffffffffff169050919050565b6000600754905090565b60006060600061108c610b28565b905060008167ffffffffffffffff8111156110aa576110a96135fe565b5b6040519080825280602002602001820160405280156110d85781602001602082028036833780820191505090505b50905060007f0000000000000000000000000000000000000000000000000000000000000000600b544261110c91906139f2565b119050600080841190506000806000805b87811015611297576000600c60008381526020019081526020016000209050806003018054905088838151811061115757611156613994565b5b602002602001018181525050600115158160020160009054906101000a900460ff1615150361118557600194505b60008160030180549050111561119a57600193505b60005b8883815181106111b0576111af613994565b5b602002602001015181101561126457428260040160008460030184815481106111dc576111db613994565b5b9060005260206000200160009054906101000a900473ffffffffffffffffffffffffffffffffffffffff1673ffffffffffffffffffffffffffffffffffffffff1673ffffffffffffffffffffffffffffffffffffffff1681526020019081526020016000205410156112515760019350611264565b808061125c90613a4f565b91505061119d565b5084801561126f5750835b80156112785750825b156112835750611297565b50808061128f90613a4f565b91505061111d565b508480156112a25750835b80156112ab5750825b80156112b45750815b80156112bd5750805b9850886040518060400160405280600381526020017f30783000000000000000000000000000000000000000000000000000000000008152509850985050505050505050915091565b6000600160008373ffffffffffffffffffffffffffffffffffffffff1673ffffffffffffffffffffffffffffffffffffffff168152602001908152602001600020805490509050919050565b61135a611e9e565b611364600061250f565b565b6000600960009054906101000a900473ffffffffffffffffffffffffffffffffffffffff16905090565b6113986125d5565b6000600d60003373ffffffffffffffffffffffffffffffffffffffff1673ffffffffffffffffffffffffffffffffffffffff168152602001908152602001600020549050600081111561142f576000600d60003373ffffffffffffffffffffffffffffffffffffffff1673ffffffffffffffffffffffffffffffffffffffff16815260200190815260200160002081905550611461565b6040517f6925f4c400000000000000000000000000000000000000000000000000000000815260040160405180910390fd5b60003373ffffffffffffffffffffffffffffffffffffffff168260405161148790613ac8565b60006040518083038185875af1925050503d80600081146114c4576040519150601f19603f3d011682016040523d82523d6000602084013e6114c9565b606091505b50509050806115485781600d60003373ffffffffffffffffffffffffffffffffffffffff1673ffffffffffffffffffffffffffffffffffffffff168152602001908152602001600020819055506040517fec1e1cc300000000000000000000000000000000000000000000000000000000815260040160405180910390fd5b8015153373ffffffffffffffffffffffffffffffffffffffff16837fcdeaa56b4f47bc9f929a0a8ef4a441c85f6b3fcf27836b68ee42d67e96ff758960405160405180910390a45050611599612624565b565b6060600580546115aa90613963565b80601f01602080910402602001604051908101604052809291908181526020018280546115d690613963565b80156116235780601f106115f857610100808354040283529160200191611623565b820191906000526020600020905b81548152906001019060200180831161160657829003601f168201915b5050505050905090565b565b600080600c60008581526020019081526020016000209050428160040160008573ffffffffffffffffffffffffffffffffffffffff1673ffffffffffffffffffffffffffffffffffffffff16815260200190815260200160002054106116e157428160040160008573ffffffffffffffffffffffffffffffffffffffff1673ffffffffffffffffffffffffffffffffffffffff168152602001908152602001600020546116dc91906139f2565b6116e4565b60005b91505092915050565b60606116f8826120e7565b506000600c6000848152602001908152602001600020905080600001805461171f90613963565b80601f016020809104026020016040519081016040528092919081815260200182805461174b90613963565b80156117985780601f1061176d57610100808354040283529160200191611798565b820191906000526020600020905b81548152906001019060200180831161177b57829003601f168201915b5050505050915050919050565b6117ad6125d5565b6000600c600085815260200190815260200160002090508173ffffffffffffffffffffffffffffffffffffffff166117e48561103e565b73ffffffffffffffffffffffffffffffffffffffff16148061185157508060060160008373ffffffffffffffffffffffffffffffffffffffff1673ffffffffffffffffffffffffffffffffffffffff16815260200190815260200160002060009054906101000a900460ff165b15611888576040517f3290597800000000000000000000000000000000000000000000000000000000815260040160405180910390fd5b8060020160009054906101000a900460ff166118d0576040517f8092deae00000000000000000000000000000000000000000000000000000000815260040160405180910390fd5b600015156118dd85611d60565b151503611916576040517f2cb1fb6700000000000000000000000000000000000000000000000000000000815260040160405180910390fd5b3481600101541115611954576040517f8e5892e900000000000000000000000000000000000000000000000000000000815260040160405180910390fd5b80600301829080600181540180825580915050600190039060005260206000200160009091909190916101000a81548173ffffffffffffffffffffffffffffffffffffffff021916908373ffffffffffffffffffffffffffffffffffffffff16021790555082426119c59190613add565b8160040160008473ffffffffffffffffffffffffffffffffffffffff1673ffffffffffffffffffffffffffffffffffffffff16815260200190815260200160002081905550611a1584848461262e565b8160050160008473ffffffffffffffffffffffffffffffffffffffff1673ffffffffffffffffffffffffffffffffffffffff1681526020019081526020016000209081611a629190613cbd565b5060018160060160008473ffffffffffffffffffffffffffffffffffffffff1673ffffffffffffffffffffffffffffffffffffffff16815260200190815260200160002060006101000a81548160ff02191690831515021790555034600d6000611acb8761103e565b73ffffffffffffffffffffffffffffffffffffffff1673ffffffffffffffffffffffffffffffffffffffff1681526020019081526020016000206000828254611b149190613add565b92505081905550838160040160008473ffffffffffffffffffffffffffffffffffffffff1673ffffffffffffffffffffffffffffffffffffffff168152602001908152602001600020547fc1a4e46d68be810b14940f2a64e17f1dc4ba49ff9772f297b1fb608df190d9708360060160008673ffffffffffffffffffffffffffffffffffffffff1673ffffffffffffffffffffffffffffffffffffffff16815260200190815260200160002060009054906101000a900460ff16604051611bdb91906131d8565b60405180910390a350611bec612624565b505050565b60606000600c600085815260200190815260200160002090508060050160008473ffffffffffffffffffffffffffffffffffffffff1673ffffffffffffffffffffffffffffffffffffffff1681526020019081526020016000208054611c5690613963565b80601f0160208091040260200160405190810160405280929190818152602001828054611c8290613963565b8015611ccf5780601f10611ca457610100808354040283529160200191611ccf565b820191906000526020600020905b815481529060010190602001808311611cb257829003601f168201915b505050505091505092915050565b611ce5611e9e565b600073ffffffffffffffffffffffffffffffffffffffff168173ffffffffffffffffffffffffffffffffffffffff1603611d54576040517f08c379a0000000000000000000000000000000000000000000000000000000008152600401611d4b90613e01565b60405180910390fd5b611d5d8161250f565b50565b6000611d6b826120e7565b60010160149054906101000a900460ff169050919050565b600080600c600084815260200190815260200160002090508060020160009054906101000a900460ff16915050919050565b6000611dbf610b28565b90506000600c60008381526020019081526020016000209050611de1336127a6565b5082816000019081611df39190613cbd565b50817fbda0610fb2d79eb4738c314b0a0b29d8ddb357941fc92faefd4cbb40b6c122a582600001604051611e279190613ea5565b60405180910390a2505050565b60007f01ffc9a7000000000000000000000000000000000000000000000000000000007bffffffffffffffffffffffffffffffffffffffffffffffffffffffff1916827bffffffffffffffffffffffffffffffffffffffffffffffffffffffff1916149050919050565b611ea6612811565b73ffffffffffffffffffffffffffffffffffffffff16611ec4611366565b73ffffffffffffffffffffffffffffffffffffffff1614611f1a576040517f08c379a0000000000000000000000000000000000000000000000000000000008152600401611f1190613f13565b60405180910390fd5b565b6000611f27826120e7565b90508060010160149054906101000a900460ff16611f7a576040517f08c379a0000000000000000000000000000000000000000000000000000000008152600401611f7190613f7f565b60405180910390fd5b60008160010160146101000a81548160ff0219169083151502179055506000600360008360010160009054906101000a900473ffffffffffffffffffffffffffffffffffffffff1673ffffffffffffffffffffffffffffffffffffffff1673ffffffffffffffffffffffffffffffffffffffff168152602001908152602001600020541161200b5761200a613f9f565b5b6001600360008360010160009054906101000a900473ffffffffffffffffffffffffffffffffffffffff1673ffffffffffffffffffffffffffffffffffffffff1673ffffffffffffffffffffffffffffffffffffffff168152602001908152602001600020600082825461207f91906139f2565b925050819055507f713b90881ad62c4fa8ab6bd9197fa86481fc0c11b2edba60026514281b2dbac48160010160009054906101000a900473ffffffffffffffffffffffffffffffffffffffff16836040516120db929190613fce565b60405180910390a15050565b6000806000808481526020019081526020016000209050600073ffffffffffffffffffffffffffffffffffffffff168160010160009054906101000a900473ffffffffffffffffffffffffffffffffffffffff1673ffffffffffffffffffffffffffffffffffffffff1603612191576040517f08c379a000000000000000000000000000000000000000000000000000000000815260040161218890614043565b60405180910390fd5b80915050919050565b81816121a5826120e7565b506000600c6000848152602001908152602001600020905060008160040160008473ffffffffffffffffffffffffffffffffffffffff1673ffffffffffffffffffffffffffffffffffffffff1681526020019081526020016000205403612238576040517f9de37bc200000000000000000000000000000000000000000000000000000000815260040160405180910390fd5b428160040160008473ffffffffffffffffffffffffffffffffffffffff1673ffffffffffffffffffffffffffffffffffffffff1681526020019081526020016000205411156122b3576040517f9ce5e57600000000000000000000000000000000000000000000000000000000815260040160405180910390fd5b6122bc856120e7565b506000600c6000878152602001908152602001600020905060005b81600301805490508110156124ac578573ffffffffffffffffffffffffffffffffffffffff1682600301828154811061231357612312613994565b5b9060005260206000200160009054906101000a900473ffffffffffffffffffffffffffffffffffffffff1673ffffffffffffffffffffffffffffffffffffffff160361249957868673ffffffffffffffffffffffffffffffffffffffff167fc73ad78a77cee4f2edf86fb7902dddaee64a464222980ab9ee98497cdf6d1e7860405160405180910390a381600301600183600301805490506123b591906139f2565b815481106123c6576123c5613994565b5b9060005260206000200160009054906101000a900473ffffffffffffffffffffffffffffffffffffffff1682600301828154811061240757612406613994565b5b9060005260206000200160006101000a81548173ffffffffffffffffffffffffffffffffffffffff021916908373ffffffffffffffffffffffffffffffffffffffff1602179055508160030180548061246357612462614063565b5b6001900381819060005260206000200160006101000a81549073ffffffffffffffffffffffffffffffffffffffff021916905590555b80806124a490613a4f565b9150506122d7565b5060008160060160008773ffffffffffffffffffffffffffffffffffffffff1673ffffffffffffffffffffffffffffffffffffffff16815260200190815260200160002060006101000a81548160ff021916908315150217905550505050505050565b6000600960009054906101000a900473ffffffffffffffffffffffffffffffffffffffff16905081600960006101000a81548173ffffffffffffffffffffffffffffffffffffffff021916908373ffffffffffffffffffffffffffffffffffffffff1602179055508173ffffffffffffffffffffffffffffffffffffffff168173ffffffffffffffffffffffffffffffffffffffff167f8be0079c531659141344cd1fd0a4f28419497f9722a3daafe3b4186f6b6457e060405160405180910390a35050565b6002600a540361261a576040517f08c379a0000000000000000000000000000000000000000000000000000000008152600401612611906140de565b60405180910390fd5b6002600a81905550565b6001600a81905550565b60606000834261263e9190613add565b9050600080600061264e84612819565b92509250925060006126773373ffffffffffffffffffffffffffffffffffffffff16601461284d565b9050600061269c8873ffffffffffffffffffffffffffffffffffffffff16601461284d565b905060006126a98b612a89565b905060006126b687612a89565b905060006126c387612a89565b905060006126d087612a89565b905060008686868486886040516020016126ef96959493929190614374565b6040516020818303038152906040529050600082848660405160200161271793929190614465565b60405160208183030381529060405290508f8e73ffffffffffffffffffffffffffffffffffffffff163373ffffffffffffffffffffffffffffffffffffffff167f10b55d68fbface02256fafde2dfb9d65364fc0186c67c07bdbf695c8e0b7261285856040516127889291906144b7565b60405180910390a4819c505050505050505050505050509392505050565b600060065490506127b982826001612b57565b7f30385c845b448a36257a6a1716e6ad2e1bc2cbe333cde1e69fe849ad6511adfe82826040516127ea929190613fce565b60405180910390a16001600660008282546128059190613add565b92505081905550919050565b600033905090565b600080600061283a620151808581612834576128336144ee565b5b04612ecc565b8093508194508295505050509193909250565b606060006002836002612860919061451d565b61286a9190613add565b67ffffffffffffffff811115612883576128826135fe565b5b6040519080825280601f01601f1916602001820160405280156128b55781602001600182028036833780820191505090505b5090507f3000000000000000000000000000000000000000000000000000000000000000816000815181106128ed576128ec613994565b5b60200101907effffffffffffffffffffffffffffffffffffffffffffffffffffffffffffff1916908160001a9053507f78000000000000000000000000000000000000000000000000000000000000008160018151811061295157612950613994565b5b60200101907effffffffffffffffffffffffffffffffffffffffffffffffffffffffffffff1916908160001a90535060006001846002612991919061451d565b61299b9190613add565b90505b6001811115612a3b577f3031323334353637383961626364656600000000000000000000000000000000600f8616601081106129dd576129dc613994565b5b1a60f81b8282815181106129f4576129f3613994565b5b60200101907effffffffffffffffffffffffffffffffffffffffffffffffffffffffffffff1916908160001a905350600485901c945080612a3490613a26565b905061299e565b5060008414612a7f576040517f08c379a0000000000000000000000000000000000000000000000000000000008152600401612a76906145ab565b60405180910390fd5b8091505092915050565b606060006001612a9884612fd1565b01905060008167ffffffffffffffff811115612ab757612ab66135fe565b5b6040519080825280601f01601f191660200182016040528015612ae95781602001600182028036833780820191505090505b509050600082602001820190505b600115612b4c578080600190039150507f3031323334353637383961626364656600000000000000000000000000000000600a86061a8153600a8581612b4057612b3f6144ee565b5b04945060008503612af7575b819350505050919050565b600073ffffffffffffffffffffffffffffffffffffffff1660008084815260200190815260200160002060010160009054906101000a900473ffffffffffffffffffffffffffffffffffffffff1673ffffffffffffffffffffffffffffffffffffffff1614612bfb576040517f08c379a0000000000000000000000000000000000000000000000000000000008152600401612bf290614617565b60405180910390fd5b6000600160008573ffffffffffffffffffffffffffffffffffffffff1673ffffffffffffffffffffffffffffffffffffffff1681526020019081526020016000208054905003612c6057600160076000828254612c589190613add565b925050819055505b60405180606001604052803373ffffffffffffffffffffffffffffffffffffffff1681526020018473ffffffffffffffffffffffffffffffffffffffff16815260200182151581525060008084815260200190815260200160002060008201518160000160006101000a81548173ffffffffffffffffffffffffffffffffffffffff021916908373ffffffffffffffffffffffffffffffffffffffff16021790555060208201518160010160006101000a81548173ffffffffffffffffffffffffffffffffffffffff021916908373ffffffffffffffffffffffffffffffffffffffff16021790555060408201518160010160146101000a81548160ff021916908315150217905550905050600160008473ffffffffffffffffffffffffffffffffffffffff1673ffffffffffffffffffffffffffffffffffffffff16815260200190815260200160002080549050600260008573ffffffffffffffffffffffffffffffffffffffff1673ffffffffffffffffffffffffffffffffffffffff168152602001908152602001600020600084815260200190815260200160002081905550600160008473ffffffffffffffffffffffffffffffffffffffff1673ffffffffffffffffffffffffffffffffffffffff1681526020019081526020016000208290806001815401808255809150506001900390600052602060002001600090919091909150558015612ec7576001600360008573ffffffffffffffffffffffffffffffffffffffff1673ffffffffffffffffffffffffffffffffffffffff1681526020019081526020016000206000828254612ebf9190613add565b925050819055505b505050565b600080600080849050600062253d8c62010bd98301019050600062023ab18260040281612efc57612efb6144ee565b5b059050600460038262023ab1020181612f1857612f176144ee565b5b0582039150600062164b0960018401610fa00281612f3957612f386144ee565b5b059050601f6004826105b50281612f5357612f526144ee565b5b058403019250600061098f8460500281612f7057612f6f6144ee565b5b059050600060508261098f0281612f8a57612f896144ee565b5b0585039050600b8281612fa057612f9f6144ee565b5b05945084600c0260028301039150848360318603606402010192508298508197508096505050505050509193909250565b600080600090507a184f03e93ff9f4daa797ed6e38ed64bf6a1f010000000000000000831061302f577a184f03e93ff9f4daa797ed6e38ed64bf6a1f0100000000000000008381613025576130246144ee565b5b0492506040810190505b6d04ee2d6d415b85acef8100000000831061306c576d04ee2d6d415b85acef81000000008381613062576130616144ee565b5b0492506020810190505b662386f26fc10000831061309b57662386f26fc100008381613091576130906144ee565b5b0492506010810190505b6305f5e10083106130c4576305f5e10083816130ba576130b96144ee565b5b0492506008810190505b61271083106130e95761271083816130df576130de6144ee565b5b0492506004810190505b6064831061310c5760648381613102576131016144ee565b5b0492506002810190505b600a831061311b576001810190505b80915050919050565b6000604051905090565b600080fd5b600080fd5b60007fffffffff0000000000000000000000000000000000000000000000000000000082169050919050565b61316d81613138565b811461317857600080fd5b50565b60008135905061318a81613164565b92915050565b6000602082840312156131a6576131a561312e565b5b60006131b48482850161317b565b91505092915050565b60008115159050919050565b6131d2816131bd565b82525050565b60006020820190506131ed60008301846131c9565b92915050565b6000819050919050565b613206816131f3565b811461321157600080fd5b50565b600081359050613223816131fd565b92915050565b60006020828403121561323f5761323e61312e565b5b600061324d84828501613214565b91505092915050565b600081519050919050565b600082825260208201905092915050565b60005b83811015613290578082015181840152602081019050613275565b60008484015250505050565b6000601f19601f8301169050919050565b60006132b882613256565b6132c28185613261565b93506132d2818560208601613272565b6132db8161329c565b840191505092915050565b6000602082019050818103600083015261330081846132ad565b905092915050565b600081519050919050565b600082825260208201905092915050565b6000819050602082019050919050565b600073ffffffffffffffffffffffffffffffffffffffff82169050919050565b600061335f82613334565b9050919050565b61336f81613354565b82525050565b60006133818383613366565b60208301905092915050565b6000602082019050919050565b60006133a582613308565b6133af8185613313565b93506133ba83613324565b8060005b838110156133eb5781516133d28882613375565b97506133dd8361338d565b9250506001810190506133be565b5085935050505092915050565b60006020820190508181036000830152613412818461339a565b905092915050565b613423816131f3565b82525050565b600060208201905061343e600083018461341a565b92915050565b61344d81613354565b811461345857600080fd5b50565b60008135905061346a81613444565b92915050565b6000602082840312156134865761348561312e565b5b60006134948482850161345b565b91505092915050565b600080fd5b600080fd5b600080fd5b60008083601f8401126134c2576134c161349d565b5b8235905067ffffffffffffffff8111156134df576134de6134a2565b5b6020830191508360018202830111156134fb576134fa6134a7565b5b9250929050565b600080602083850312156135195761351861312e565b5b600083013567ffffffffffffffff81111561353757613536613133565b5b613543858286016134ac565b92509250509250929050565b600080604083850312156135665761356561312e565b5b600061357485828601613214565b925050602061358585828601613214565b9150509250929050565b600080604083850312156135a6576135a561312e565b5b60006135b485828601613214565b92505060206135c58582860161345b565b9150509250929050565b6135d881613354565b82525050565b60006020820190506135f360008301846135cf565b92915050565b600080fd5b7f4e487b7100000000000000000000000000000000000000000000000000000000600052604160045260246000fd5b6136368261329c565b810181811067ffffffffffffffff82111715613655576136546135fe565b5b80604052505050565b6000613668613124565b9050613674828261362d565b919050565b600067ffffffffffffffff821115613694576136936135fe565b5b61369d8261329c565b9050602081019050919050565b82818337600083830152505050565b60006136cc6136c784613679565b61365e565b9050828152602081018484840111156136e8576136e76135f9565b5b6136f38482856136aa565b509392505050565b600082601f8301126137105761370f61349d565b5b81356137208482602086016136b9565b91505092915050565b60006020828403121561373f5761373e61312e565b5b600082013567ffffffffffffffff81111561375d5761375c613133565b5b613769848285016136fb565b91505092915050565b600081519050919050565b600082825260208201905092915050565b600061379982613772565b6137a3818561377d565b93506137b3818560208601613272565b6137bc8161329c565b840191505092915050565b60006040820190506137dc60008301856131c9565b81810360208301526137ee818461378e565b90509392505050565b6000806000606084860312156138105761380f61312e565b5b600061381e86828701613214565b935050602061382f86828701613214565b92505060406138408682870161345b565b9150509250925092565b600067ffffffffffffffff821115613865576138646135fe565b5b61386e8261329c565b9050602081019050919050565b600061388e6138898461384a565b61365e565b9050828152602081018484840111156138aa576138a96135f9565b5b6138b58482856136aa565b509392505050565b600082601f8301126138d2576138d161349d565b5b81356138e284826020860161387b565b91505092915050565b6000602082840312156139015761390061312e565b5b600082013567ffffffffffffffff81111561391f5761391e613133565b5b61392b848285016138bd565b91505092915050565b7f4e487b7100000000000000000000000000000000000000000000000000000000600052602260045260246000fd5b6000600282049050600182168061397b57607f821691505b60208210810361398e5761398d613934565b5b50919050565b7f4e487b7100000000000000000000000000000000000000000000000000000000600052603260045260246000fd5b7f4e487b7100000000000000000000000000000000000000000000000000000000600052601160045260246000fd5b60006139fd826131f3565b9150613a08836131f3565b9250828203905081811115613a2057613a1f6139c3565b5b92915050565b6000613a31826131f3565b915060008203613a4457613a436139c3565b5b600182039050919050565b6000613a5a826131f3565b91507fffffffffffffffffffffffffffffffffffffffffffffffffffffffffffffffff8203613a8c57613a8b6139c3565b5b600182019050919050565b600081905092915050565b50565b6000613ab2600083613a97565b9150613abd82613aa2565b600082019050919050565b6000613ad382613aa5565b9150819050919050565b6000613ae8826131f3565b9150613af3836131f3565b9250828201905080821115613b0b57613b0a6139c3565b5b92915050565b60008190508160005260206000209050919050565b60006020601f8301049050919050565b600082821b905092915050565b600060088302613b737fffffffffffffffffffffffffffffffffffffffffffffffffffffffffffffffff82613b36565b613b7d8683613b36565b95508019841693508086168417925050509392505050565b6000819050919050565b6000613bba613bb5613bb0846131f3565b613b95565b6131f3565b9050919050565b6000819050919050565b613bd483613b9f565b613be8613be082613bc1565b848454613b43565b825550505050565b600090565b613bfd613bf0565b613c08818484613bcb565b505050565b5b81811015613c2c57613c21600082613bf5565b600181019050613c0e565b5050565b601f821115613c7157613c4281613b11565b613c4b84613b26565b81016020851015613c5a578190505b613c6e613c6685613b26565b830182613c0d565b50505b505050565b600082821c905092915050565b6000613c9460001984600802613c76565b1980831691505092915050565b6000613cad8383613c83565b9150826002028217905092915050565b613cc682613256565b67ffffffffffffffff811115613cdf57613cde6135fe565b5b613ce98254613963565b613cf4828285613c30565b600060209050601f831160018114613d275760008415613d15578287015190505b613d1f8582613ca1565b865550613d87565b601f198416613d3586613b11565b60005b82811015613d5d57848901518255600182019150602085019450602081019050613d38565b86831015613d7a5784890151613d76601f891682613c83565b8355505b6001600288020188555050505b505050505050565b7f4f776e61626c653a206e6577206f776e657220697320746865207a65726f206160008201527f6464726573730000000000000000000000000000000000000000000000000000602082015250565b6000613deb602683613261565b9150613df682613d8f565b604082019050919050565b60006020820190508181036000830152613e1a81613dde565b9050919050565b60008154613e2e81613963565b613e388186613261565b94506001821660008114613e535760018114613e6957613e9c565b60ff198316865281151560200286019350613e9c565b613e7285613b11565b60005b83811015613e9457815481890152600182019150602081019050613e75565b808801955050505b50505092915050565b60006020820190508181036000830152613ebf8184613e21565b905092915050565b7f4f776e61626c653a2063616c6c6572206973206e6f7420746865206f776e6572600082015250565b6000613efd602083613261565b9150613f0882613ec7565b602082019050919050565b60006020820190508181036000830152613f2c81613ef0565b9050919050565b7f546f6b656e20697320616c726561647920696e76616c69640000000000000000600082015250565b6000613f69601883613261565b9150613f7482613f33565b602082019050919050565b60006020820190508181036000830152613f9881613f5c565b9050919050565b7f4e487b7100000000000000000000000000000000000000000000000000000000600052600160045260246000fd5b6000604082019050613fe360008301856135cf565b613ff0602083018461341a565b9392505050565b7f546f6b656e20646f6573206e6f74206578697374000000000000000000000000600082015250565b600061402d601483613261565b915061403882613ff7565b602082019050919050565b6000602082019050818103600083015261405c81614020565b9050919050565b7f4e487b7100000000000000000000000000000000000000000000000000000000600052603160045260246000fd5b7f5265656e7472616e637947756172643a207265656e7472616e742063616c6c00600082015250565b60006140c8601f83613261565b91506140d382614092565b602082019050919050565b600060208201905081810360008301526140f7816140bb565b9050919050565b600081905092915050565b7f546865204172746973743a200000000000000000000000000000000000000000600082015250565b600061413f600c836140fe565b915061414a82614109565b600c82019050919050565b600061416082613256565b61416a81856140fe565b935061417a818560208601613272565b80840191505092915050565b7f20686572656279206772616e742074686520426f72726f7765723a2000000000600082015250565b60006141bc601c836140fe565b91506141c782614186565b601c82019050919050565b7f2066756c6c20616e6420756e726573747269637465642072696768747320746f60008201527f20757365207069656365206f6620776f726b2064657363726962656420756e6460208201527f657220746f6b656e49643a200000000000000000000000000000000000000000604082015250565b6000614254604c836140fe565b915061425f826141d2565b604c82019050919050565b7f2e205468697320636c617573652077696c6c2062652076616c696420756e746960008201527f6c20656e64206f66200000000000000000000000000000000000000000000000602082015250565b60006142c66029836140fe565b91506142d18261426a565b602982019050919050565b7f2000000000000000000000000000000000000000000000000000000000000000600082015250565b60006143126001836140fe565b915061431d826142dc565b600182019050919050565b7f2044444d4d595959590000000000000000000000000000000000000000000000600082015250565b600061435e6009836140fe565b915061436982614328565b600982019050919050565b600061437f82614132565b915061438b8289614155565b9150614396826141af565b91506143a28288614155565b91506143ad82614247565b91506143b98287614155565b91506143c4826142b9565b91506143d08286614155565b91506143db82614305565b91506143e78285614155565b91506143f282614305565b91506143fe8284614155565b915061440982614351565b9150819050979650505050505050565b7f44444d4d595959593a2000000000000000000000000000000000000000000000600082015250565b600061444f600a836140fe565b915061445a82614419565b600a82019050919050565b600061447082614442565b915061447c8286614155565b915061448782614305565b91506144938285614155565b915061449e82614305565b91506144aa8284614155565b9150819050949350505050565b600060408201905081810360008301526144d181856132ad565b905081810360208301526144e581846132ad565b90509392505050565b7f4e487b7100000000000000000000000000000000000000000000000000000000600052601260045260246000fd5b6000614528826131f3565b9150614533836131f3565b9250828202614541816131f3565b91508282048414831517614558576145576139c3565b5b5092915050565b7f537472696e67733a20686578206c656e67746820696e73756666696369656e74600082015250565b6000614595602083613261565b91506145a08261455f565b602082019050919050565b600060208201905081810360008301526145c481614588565b9050919050565b7f43616e6e6f74206d696e7420616e2061737369676e656420746f6b656e000000600082015250565b6000614601601d83613261565b915061460c826145cb565b602082019050919050565b60006020820190508181036000830152614630816145f4565b905091905056fea2646970667358221220f7d41593d157c0a1a4cc6f2843da3c3d52c0c8f7527b7be692266ff6f3c9bb6a64736f6c63430008120033",
  "devdoc": {
    "errors": {
      "DRM__NotEnoughETH()": [
        {
          "details": "Errors"
        }
      ]
    },
    "events": {
      "TokenUriSet(string,uint256)": {
        "details": "Events"
      }
    },
    "kind": "dev",
    "methods": {
      "allowLending(uint256,uint256)": {
        "params": {
          "price": "Amount of ETH (in Wei), for which license for this tokenId can be bought",
          "tokenId": "Identifier of certificate"
        }
      },
      "balanceOf(address)": {
        "params": {
          "owner": "Address for whom to query the balance"
        },
        "returns": {
          "_0": "Number of tokens owned by `owner`"
        }
      },
      "blockLending(uint256)": {
        "params": {
          "tokenId": "Identifier of certificate"
        }
      },
      "buyLicense(uint256,uint256,address)": {
        "params": {
          "borrower": "address whom will receive permission",
          "lendingTime": "time for how long permission will persist",
          "tokenId": "Identifier of certificate"
        }
      },
      "checkUpkeep(bytes)": {
        "params": {
          "upkeepNeeded": "returns true or false depending on 4 conditions"
        }
      },
      "emittedCount()": {
        "returns": {
          "_0": "emittedCount Number of tokens emitted"
        }
      },
      "getCertsBorrowers(uint256)": {
        "params": {
          "tokenId": "Identifier of certificate"
        }
      },
      "getClause(uint256,address)": {
        "params": {
          "borrower": "Address, which has rights to use specific piece of art described in certificate",
          "tokenId": "Identifier of certificate"
        }
      },
      "getLendingStatus(uint256)": {
        "params": {
          "tokenId": "Identifier of certificate"
        }
      },
      "getLicenseValidity(uint256,address)": {
        "params": {
          "borrower": "Address, which has rights to use specific piece of art described in certificate",
          "tokenId": "Identifier of certificate"
        }
      },
      "hasValid(address)": {
        "params": {
          "owner": "Address for whom to check the ownership"
        },
        "returns": {
          "_0": "True if `owner` has a valid token, false otherwise"
        }
      },
      "holdersCount()": {
        "returns": {
          "_0": "holdersCount Number of token unique holders"
        }
      },
      "isValid(uint256)": {
        "params": {
          "tokenId": "Identifier of the token"
        },
        "returns": {
          "_0": "True if the token is valid, false otherwise"
        }
      },
      "mintNFT(string)": {
        "params": {
          "createdTokenURI": "URI to assign for minted certificate"
        }
      },
      "name()": {
        "returns": {
          "_0": "Descriptive name of the tokens in this contract"
        }
      },
      "owner()": {
        "details": "Returns the address of the current owner."
      },
      "ownerOf(uint256)": {
        "params": {
          "tokenId": "Identifier of the token"
        },
        "returns": {
          "_0": "Address of the owner of `tokenId`"
        }
      },
      "renounceOwnership()": {
        "details": "Leaves the contract without owner. It will not be possible to call `onlyOwner` functions anymore. Can only be called by the current owner. NOTE: Renouncing ownership will leave the contract without an owner, thereby removing any functionality that is only available to the owner."
      },
      "revokeCertificate(uint256)": {
        "params": {
          "tokenId": "Identifier of certificate"
        }
      },
      "symbol()": {
        "returns": {
          "_0": "An abbreviated name of the tokens in this contract"
        }
      },
      "tokenURI(uint256)": {
        "params": {
          "tokenId": "Identifier of certificate"
        },
        "returns": {
          "_0": "URI for the certificate"
        }
      },
      "transferOwnership(address)": {
        "details": "Transfers ownership of the contract to a new account (`newOwner`). Can only be called by the current owner."
      }
    },
    "stateVariables": {
      "i_interval": {
        "details": "Variables"
      },
      "s_certs": {
        "details": "Mappings"
      }
    },
    "version": 1
  },
  "userdoc": {
    "events": {
      "Minted(address,uint256)": {
        "notice": "Event emitted when a token `tokenId` is minted for `owner`"
      },
      "Revoked(address,uint256)": {
        "notice": "Event emitted when token `tokenId` of `owner` is revoked"
      }
    },
    "kind": "user",
    "methods": {
      "allowLending(uint256,uint256)": {
        "notice": "Allows owner of tokenId(Certificate) to make this token borrowable by other users"
      },
      "balanceOf(address)": {
        "notice": "Count all tokens assigned to an owner"
      },
      "blockLending(uint256)": {
        "notice": "Allows owner of tokenId(Certificate) to make this token unborrowable"
      },
      "buyLicense(uint256,uint256,address)": {
        "notice": "Gives permission to borrower to use copyrights assigned to specific certificate marked by tokenId"
      },
      "checkUpkeep(bytes)": {
        "notice": "This is the function that the Chainlink Keeper nodes call to check if performing upkeep is needed"
      },
      "getCertsBorrowers(uint256)": {
        "notice": "Returns all active borrowers of specific certificate(tokenId)"
      },
      "getClause(uint256,address)": {
        "notice": "Returns clause for certain tokenId and borrower"
      },
      "getExpirationTime(uint256,address)": {
        "notice": "Tells if given certificate(tokenId) is allowed to be borrowed by other users"
      },
      "getLendingStatus(uint256)": {
        "notice": "Tells if given certificate(tokenId) is allowed to be borrowed by other users"
      },
      "getLicenseValidity(uint256,address)": {
        "notice": "Tells if given borrower is allowed to use given certificate(tokenId)"
      },
      "hasValid(address)": {
        "notice": "Check if an address owns a valid token in the contract"
      },
      "isValid(uint256)": {
        "notice": "Check if a token hasn't been revoked"
      },
      "mintNFT(string)": {
        "notice": "Mint a new certificate (Token/NFT)"
      },
      "ownerOf(uint256)": {
        "notice": "Get owner of a token"
      },
      "performUpkeep(bytes)": {
        "notice": "Once checkUpkeep() returns \"true\" this function is called to execute licenseStatusUpdater() functionIt iterates thru all tokenId's and borrowers per those tokens to remove all licenses that have expired"
      },
      "revokeCertificate(uint256)": {
        "notice": "Allows contract owner to revoke token with copyrights plagiarism"
      },
      "stakeProceeds()": {
        "notice": "Allows lenders to stake proceeds on Verse instead of withdrawing them"
      },
      "tokenURI(uint256)": {
        "notice": "URI to query to get the certificate's metadata"
      },
      "unStakeProceeds()": {
        "notice": "Allows lenders to unstake proceeds from Verse"
      },
      "withdrawProceeds()": {
        "notice": "Allows lenders to withdraw their proceeds"
      }
    },
    "version": 1
  },
  "storageLayout": {
    "storage": [
      {
        "astId": 4020,
        "contract": "contracts/DigitalRightsMaykr.sol:DigitalRightsMaykr",
        "label": "_tokens",
        "offset": 0,
        "slot": "0",
        "type": "t_mapping(t_uint256,t_struct(Token)4015_storage)"
      },
      {
        "astId": 4025,
        "contract": "contracts/DigitalRightsMaykr.sol:DigitalRightsMaykr",
        "label": "_indexedTokenIds",
        "offset": 0,
        "slot": "1",
        "type": "t_mapping(t_address,t_array(t_uint256)dyn_storage)"
      },
      {
        "astId": 4031,
        "contract": "contracts/DigitalRightsMaykr.sol:DigitalRightsMaykr",
        "label": "_tokenIdIndex",
        "offset": 0,
        "slot": "2",
        "type": "t_mapping(t_address,t_mapping(t_uint256,t_uint256))"
      },
      {
        "astId": 4035,
        "contract": "contracts/DigitalRightsMaykr.sol:DigitalRightsMaykr",
        "label": "_numberOfValidTokens",
        "offset": 0,
        "slot": "3",
        "type": "t_mapping(t_address,t_uint256)"
      },
      {
        "astId": 4037,
        "contract": "contracts/DigitalRightsMaykr.sol:DigitalRightsMaykr",
        "label": "_name",
        "offset": 0,
        "slot": "4",
        "type": "t_string_storage"
      },
      {
        "astId": 4039,
        "contract": "contracts/DigitalRightsMaykr.sol:DigitalRightsMaykr",
        "label": "_symbol",
        "offset": 0,
        "slot": "5",
        "type": "t_string_storage"
      },
      {
        "astId": 4041,
        "contract": "contracts/DigitalRightsMaykr.sol:DigitalRightsMaykr",
        "label": "_emittedCount",
        "offset": 0,
        "slot": "6",
        "type": "t_uint256"
      },
      {
        "astId": 4043,
        "contract": "contracts/DigitalRightsMaykr.sol:DigitalRightsMaykr",
        "label": "_holdersCount",
        "offset": 0,
        "slot": "7",
        "type": "t_uint256"
      },
      {
        "astId": 4045,
        "contract": "contracts/DigitalRightsMaykr.sol:DigitalRightsMaykr",
        "label": "_creator",
        "offset": 0,
        "slot": "8",
        "type": "t_address"
      },
      {
        "astId": 26,
        "contract": "contracts/DigitalRightsMaykr.sol:DigitalRightsMaykr",
        "label": "_owner",
        "offset": 0,
        "slot": "9",
        "type": "t_address"
      },
      {
        "astId": 142,
        "contract": "contracts/DigitalRightsMaykr.sol:DigitalRightsMaykr",
        "label": "_status",
        "offset": 0,
        "slot": "10",
        "type": "t_uint256"
      },
      {
        "astId": 2834,
        "contract": "contracts/DigitalRightsMaykr.sol:DigitalRightsMaykr",
        "label": "s_lastTimeStamp",
        "offset": 0,
        "slot": "11",
        "type": "t_uint256"
      },
      {
        "astId": 2862,
        "contract": "contracts/DigitalRightsMaykr.sol:DigitalRightsMaykr",
        "label": "s_certs",
        "offset": 0,
        "slot": "12",
        "type": "t_mapping(t_uint256,t_struct(Certificate)2856_storage)"
      },
      {
        "astId": 2866,
        "contract": "contracts/DigitalRightsMaykr.sol:DigitalRightsMaykr",
        "label": "s_proceeds",
        "offset": 0,
        "slot": "13",
        "type": "t_mapping(t_address,t_uint256)"
      }
    ],
    "types": {
      "t_address": {
        "encoding": "inplace",
        "label": "address",
        "numberOfBytes": "20"
      },
      "t_array(t_address)dyn_storage": {
        "base": "t_address",
        "encoding": "dynamic_array",
        "label": "address[]",
        "numberOfBytes": "32"
      },
      "t_array(t_uint256)dyn_storage": {
        "base": "t_uint256",
        "encoding": "dynamic_array",
        "label": "uint256[]",
        "numberOfBytes": "32"
      },
      "t_bool": {
        "encoding": "inplace",
        "label": "bool",
        "numberOfBytes": "1"
      },
      "t_mapping(t_address,t_array(t_uint256)dyn_storage)": {
        "encoding": "mapping",
        "key": "t_address",
        "label": "mapping(address => uint256[])",
        "numberOfBytes": "32",
        "value": "t_array(t_uint256)dyn_storage"
      },
      "t_mapping(t_address,t_bool)": {
        "encoding": "mapping",
        "key": "t_address",
        "label": "mapping(address => bool)",
        "numberOfBytes": "32",
        "value": "t_bool"
      },
      "t_mapping(t_address,t_mapping(t_uint256,t_uint256))": {
        "encoding": "mapping",
        "key": "t_address",
        "label": "mapping(address => mapping(uint256 => uint256))",
        "numberOfBytes": "32",
        "value": "t_mapping(t_uint256,t_uint256)"
      },
      "t_mapping(t_address,t_string_storage)": {
        "encoding": "mapping",
        "key": "t_address",
        "label": "mapping(address => string)",
        "numberOfBytes": "32",
        "value": "t_string_storage"
      },
      "t_mapping(t_address,t_uint256)": {
        "encoding": "mapping",
        "key": "t_address",
        "label": "mapping(address => uint256)",
        "numberOfBytes": "32",
        "value": "t_uint256"
      },
      "t_mapping(t_uint256,t_struct(Certificate)2856_storage)": {
        "encoding": "mapping",
        "key": "t_uint256",
        "label": "mapping(uint256 => struct DigitalRightsMaykr.Certificate)",
        "numberOfBytes": "32",
        "value": "t_struct(Certificate)2856_storage"
      },
      "t_mapping(t_uint256,t_struct(Token)4015_storage)": {
        "encoding": "mapping",
        "key": "t_uint256",
        "label": "mapping(uint256 => struct ERC4671.Token)",
        "numberOfBytes": "32",
        "value": "t_struct(Token)4015_storage"
      },
      "t_mapping(t_uint256,t_uint256)": {
        "encoding": "mapping",
        "key": "t_uint256",
        "label": "mapping(uint256 => uint256)",
        "numberOfBytes": "32",
        "value": "t_uint256"
      },
      "t_string_storage": {
        "encoding": "bytes",
        "label": "string",
        "numberOfBytes": "32"
      },
      "t_struct(Certificate)2856_storage": {
        "encoding": "inplace",
        "label": "struct DigitalRightsMaykr.Certificate",
        "members": [
          {
            "astId": 2836,
            "contract": "contracts/DigitalRightsMaykr.sol:DigitalRightsMaykr",
            "label": "tokenIdToURI",
            "offset": 0,
            "slot": "0",
            "type": "t_string_storage"
          },
          {
            "astId": 2838,
            "contract": "contracts/DigitalRightsMaykr.sol:DigitalRightsMaykr",
            "label": "tokenIdToPrice",
            "offset": 0,
            "slot": "1",
            "type": "t_uint256"
          },
          {
            "astId": 2840,
            "contract": "contracts/DigitalRightsMaykr.sol:DigitalRightsMaykr",
            "label": "tokenIdToBorrowable",
            "offset": 0,
            "slot": "2",
            "type": "t_bool"
          },
          {
            "astId": 2843,
            "contract": "contracts/DigitalRightsMaykr.sol:DigitalRightsMaykr",
            "label": "tokenIdToBorrowers",
            "offset": 0,
            "slot": "3",
            "type": "t_array(t_address)dyn_storage"
          },
          {
            "astId": 2847,
            "contract": "contracts/DigitalRightsMaykr.sol:DigitalRightsMaykr",
            "label": "tokenIdToBorrowToEnd",
            "offset": 0,
            "slot": "4",
            "type": "t_mapping(t_address,t_uint256)"
          },
          {
            "astId": 2851,
            "contract": "contracts/DigitalRightsMaykr.sol:DigitalRightsMaykr",
            "label": "tokenIdToBorrowerToClause",
            "offset": 0,
            "slot": "5",
            "type": "t_mapping(t_address,t_string_storage)"
          },
          {
            "astId": 2855,
            "contract": "contracts/DigitalRightsMaykr.sol:DigitalRightsMaykr",
            "label": "tokenIdToBorrowerToValidity",
            "offset": 0,
            "slot": "6",
            "type": "t_mapping(t_address,t_bool)"
          }
        ],
        "numberOfBytes": "224"
      },
      "t_struct(Token)4015_storage": {
        "encoding": "inplace",
        "label": "struct ERC4671.Token",
        "members": [
          {
            "astId": 4010,
            "contract": "contracts/DigitalRightsMaykr.sol:DigitalRightsMaykr",
            "label": "issuer",
            "offset": 0,
            "slot": "0",
            "type": "t_address"
          },
          {
            "astId": 4012,
            "contract": "contracts/DigitalRightsMaykr.sol:DigitalRightsMaykr",
            "label": "owner",
            "offset": 0,
            "slot": "1",
            "type": "t_address"
          },
          {
            "astId": 4014,
            "contract": "contracts/DigitalRightsMaykr.sol:DigitalRightsMaykr",
            "label": "valid",
            "offset": 20,
            "slot": "1",
            "type": "t_bool"
          }
        ],
        "numberOfBytes": "64"
      },
      "t_uint256": {
        "encoding": "inplace",
        "label": "uint256",
        "numberOfBytes": "32"
      }
    }
  }
}