{
  "address": "0x9AAf33E5c3E41c145B54E88B55Faa4E5B108f04A",
  "abi": [
    {
      "inputs": [
        {
          "internalType": "uint256",
          "name": "interval",
          "type": "uint256"
        }
      ],
      "stateMutability": "nonpayable",
      "type": "constructor"
    },
    {
      "inputs": [],
      "name": "DRM__AddressHasRightsAlready",
      "type": "error"
    },
    {
      "inputs": [],
      "name": "DRM__LicenseDoesNotExistsForThisUser",
      "type": "error"
    },
    {
      "inputs": [],
      "name": "DRM__LicenseNotExpiredYetForThisUser",
      "type": "error"
    },
    {
      "inputs": [],
      "name": "DRM__NotEnoughETH",
      "type": "error"
    },
    {
      "inputs": [],
      "name": "DRM__NotTokenOwner",
      "type": "error"
    },
    {
      "inputs": [],
      "name": "DRM__NothingToWithdraw",
      "type": "error"
    },
    {
      "inputs": [],
      "name": "DRM__TokenAlreadyAllowed",
      "type": "error"
    },
    {
      "inputs": [],
      "name": "DRM__TokenAlreadyBlocked",
      "type": "error"
    },
    {
      "inputs": [],
      "name": "DRM__TokenNotBorrowable",
      "type": "error"
    },
    {
      "inputs": [],
      "name": "DRM__TokenNotValid",
      "type": "error"
    },
    {
      "inputs": [],
      "name": "DRM__TransferFailed",
      "type": "error"
    },
    {
      "inputs": [],
      "name": "DRM__UpkeepNotNeeded",
      "type": "error"
    },
    {
      "anonymous": false,
      "inputs": [
        {
          "indexed": true,
          "internalType": "address",
          "name": "owner",
          "type": "address"
        },
        {
          "indexed": true,
          "internalType": "address",
          "name": "borrower",
          "type": "address"
        },
        {
          "indexed": false,
          "internalType": "string",
          "name": "statement",
          "type": "string"
        },
        {
          "indexed": false,
          "internalType": "string",
          "name": "expiration",
          "type": "string"
        },
        {
          "indexed": true,
          "internalType": "uint256",
          "name": "id",
          "type": "uint256"
        }
      ],
      "name": "ClauseCreated",
      "type": "event"
    },
    {
      "anonymous": false,
      "inputs": [
        {
          "indexed": true,
          "internalType": "bool",
          "name": "performed",
          "type": "bool"
        }
      ],
      "name": "ExpiredLicensesRemoved",
      "type": "event"
    },
    {
      "anonymous": false,
      "inputs": [
        {
          "indexed": true,
          "internalType": "uint256",
          "name": "price",
          "type": "uint256"
        },
        {
          "indexed": true,
          "internalType": "uint256",
          "name": "id",
          "type": "uint256"
        }
      ],
      "name": "LendingAllowed",
      "type": "event"
    },
    {
      "anonymous": false,
      "inputs": [
        {
          "indexed": true,
          "internalType": "uint256",
          "name": "id",
          "type": "uint256"
        }
      ],
      "name": "LendingBlocked",
      "type": "event"
    },
    {
      "anonymous": false,
      "inputs": [
        {
          "indexed": true,
          "internalType": "uint256",
          "name": "end",
          "type": "uint256"
        },
        {
          "indexed": false,
          "internalType": "bool",
          "name": "validity",
          "type": "bool"
        },
        {
          "indexed": true,
          "internalType": "uint256",
          "name": "id",
          "type": "uint256"
        }
      ],
      "name": "LendingLicenseCreated",
      "type": "event"
    },
    {
      "anonymous": false,
      "inputs": [
        {
          "indexed": true,
          "internalType": "address",
          "name": "borrower",
          "type": "address"
        },
        {
          "indexed": true,
          "internalType": "uint256",
          "name": "id",
          "type": "uint256"
        }
      ],
      "name": "LicenseRemoved",
      "type": "event"
    },
    {
      "anonymous": false,
      "inputs": [
        {
          "indexed": false,
          "internalType": "address",
          "name": "owner",
          "type": "address"
        },
        {
          "indexed": false,
          "internalType": "uint256",
          "name": "tokenId",
          "type": "uint256"
        }
      ],
      "name": "Minted",
      "type": "event"
    },
    {
      "anonymous": false,
      "inputs": [
        {
          "indexed": true,
          "internalType": "address",
          "name": "previousOwner",
          "type": "address"
        },
        {
          "indexed": true,
          "internalType": "address",
          "name": "newOwner",
          "type": "address"
        }
      ],
      "name": "OwnershipTransferred",
      "type": "event"
    },
    {
      "anonymous": false,
      "inputs": [
        {
          "indexed": true,
          "internalType": "uint256",
          "name": "amount",
          "type": "uint256"
        },
        {
          "indexed": true,
          "internalType": "address",
          "name": "lender",
          "type": "address"
        },
        {
          "indexed": true,
          "internalType": "bool",
          "name": "transfer",
          "type": "bool"
        }
      ],
      "name": "ProceedsWithdrawal",
      "type": "event"
    },
    {
      "anonymous": false,
      "inputs": [
        {
          "indexed": false,
          "internalType": "address",
          "name": "owner",
          "type": "address"
        },
        {
          "indexed": false,
          "internalType": "uint256",
          "name": "tokenId",
          "type": "uint256"
        }
      ],
      "name": "Revoked",
      "type": "event"
    },
    {
      "anonymous": false,
      "inputs": [
        {
          "indexed": false,
          "internalType": "string",
          "name": "uri",
          "type": "string"
        },
        {
          "indexed": true,
          "internalType": "uint256",
          "name": "id",
          "type": "uint256"
        }
      ],
      "name": "TokenUriSet",
      "type": "event"
    },
    {
      "inputs": [
        {
          "internalType": "uint256",
          "name": "tokenId",
          "type": "uint256"
        },
        {
          "internalType": "uint256",
          "name": "price",
          "type": "uint256"
        }
      ],
      "name": "allowLending",
      "outputs": [],
      "stateMutability": "nonpayable",
      "type": "function"
    },
    {
      "inputs": [
        {
          "internalType": "address",
          "name": "owner",
          "type": "address"
        }
      ],
      "name": "balanceOf",
      "outputs": [
        {
          "internalType": "uint256",
          "name": "",
          "type": "uint256"
        }
      ],
      "stateMutability": "view",
      "type": "function"
    },
    {
      "inputs": [
        {
          "internalType": "uint256",
          "name": "tokenId",
          "type": "uint256"
        }
      ],
      "name": "blockLending",
      "outputs": [],
      "stateMutability": "nonpayable",
      "type": "function"
    },
    {
      "inputs": [
        {
          "internalType": "uint256",
          "name": "tokenId",
          "type": "uint256"
        },
        {
          "internalType": "uint256",
          "name": "lendingTime",
          "type": "uint256"
        },
        {
          "internalType": "address",
          "name": "borrower",
          "type": "address"
        }
      ],
      "name": "buyLicense",
      "outputs": [],
      "stateMutability": "payable",
      "type": "function"
    },
    {
      "inputs": [
        {
          "internalType": "bytes",
          "name": "",
          "type": "bytes"
        }
      ],
      "name": "checkUpkeep",
      "outputs": [
        {
          "internalType": "bool",
          "name": "upkeepNeeded",
          "type": "bool"
        },
        {
          "internalType": "bytes",
          "name": "",
          "type": "bytes"
        }
      ],
      "stateMutability": "view",
      "type": "function"
    },
    {
      "inputs": [],
      "name": "emittedCount",
      "outputs": [
        {
          "internalType": "uint256",
          "name": "",
          "type": "uint256"
        }
      ],
      "stateMutability": "view",
      "type": "function"
    },
    {
      "inputs": [
        {
          "internalType": "uint256",
          "name": "tokenId",
          "type": "uint256"
        }
      ],
      "name": "getCertificatePrice",
      "outputs": [
        {
          "internalType": "uint256",
          "name": "",
          "type": "uint256"
        }
      ],
      "stateMutability": "view",
      "type": "function"
    },
    {
      "inputs": [
        {
          "internalType": "uint256",
          "name": "tokenId",
          "type": "uint256"
        }
      ],
      "name": "getCertsBorrowers",
      "outputs": [
        {
          "internalType": "address[]",
          "name": "",
          "type": "address[]"
        }
      ],
      "stateMutability": "view",
      "type": "function"
    },
    {
      "inputs": [
        {
          "internalType": "uint256",
          "name": "tokenId",
          "type": "uint256"
        },
        {
          "internalType": "address",
          "name": "borrower",
          "type": "address"
        }
      ],
      "name": "getClause",
      "outputs": [
        {
          "internalType": "string",
          "name": "",
          "type": "string"
        }
      ],
      "stateMutability": "view",
      "type": "function"
    },
    {
      "inputs": [
        {
          "internalType": "uint256",
          "name": "tokenId",
          "type": "uint256"
        },
        {
          "internalType": "address",
          "name": "borrower",
          "type": "address"
        }
      ],
      "name": "getExpirationTime",
      "outputs": [
        {
          "internalType": "uint256",
          "name": "",
          "type": "uint256"
        }
      ],
      "stateMutability": "view",
      "type": "function"
    },
    {
      "inputs": [
        {
          "internalType": "uint256",
          "name": "tokenId",
          "type": "uint256"
        }
      ],
      "name": "getLendingStatus",
      "outputs": [
        {
          "internalType": "bool",
          "name": "",
          "type": "bool"
        }
      ],
      "stateMutability": "view",
      "type": "function"
    },
    {
      "inputs": [
        {
          "internalType": "uint256",
          "name": "tokenId",
          "type": "uint256"
        },
        {
          "internalType": "address",
          "name": "borrower",
          "type": "address"
        }
      ],
      "name": "getLicenseValidity",
      "outputs": [
        {
          "internalType": "bool",
          "name": "",
          "type": "bool"
        }
      ],
      "stateMutability": "view",
      "type": "function"
    },
    {
      "inputs": [
        {
          "internalType": "address",
          "name": "lender",
          "type": "address"
        }
      ],
      "name": "getProceeds",
      "outputs": [
        {
          "internalType": "uint256",
          "name": "",
          "type": "uint256"
        }
      ],
      "stateMutability": "view",
      "type": "function"
    },
    {
      "inputs": [
        {
          "internalType": "address",
          "name": "owner",
          "type": "address"
        }
      ],
      "name": "hasValid",
      "outputs": [
        {
          "internalType": "bool",
          "name": "",
          "type": "bool"
        }
      ],
      "stateMutability": "view",
      "type": "function"
    },
    {
      "inputs": [],
      "name": "holdersCount",
      "outputs": [
        {
          "internalType": "uint256",
          "name": "",
          "type": "uint256"
        }
      ],
      "stateMutability": "view",
      "type": "function"
    },
    {
      "inputs": [
        {
          "internalType": "uint256",
          "name": "tokenId",
          "type": "uint256"
        }
      ],
      "name": "isValid",
      "outputs": [
        {
          "internalType": "bool",
          "name": "",
          "type": "bool"
        }
      ],
      "stateMutability": "view",
      "type": "function"
    },
    {
      "inputs": [
        {
          "internalType": "string",
          "name": "createdTokenURI",
          "type": "string"
        }
      ],
      "name": "mintNFT",
      "outputs": [],
      "stateMutability": "nonpayable",
      "type": "function"
    },
    {
      "inputs": [],
      "name": "name",
      "outputs": [
        {
          "internalType": "string",
          "name": "",
          "type": "string"
        }
      ],
      "stateMutability": "view",
      "type": "function"
    },
    {
      "inputs": [],
      "name": "owner",
      "outputs": [
        {
          "internalType": "address",
          "name": "",
          "type": "address"
        }
      ],
      "stateMutability": "view",
      "type": "function"
    },
    {
      "inputs": [
        {
          "internalType": "uint256",
          "name": "tokenId",
          "type": "uint256"
        }
      ],
      "name": "ownerOf",
      "outputs": [
        {
          "internalType": "address",
          "name": "",
          "type": "address"
        }
      ],
      "stateMutability": "view",
      "type": "function"
    },
    {
      "inputs": [
        {
          "internalType": "bytes",
          "name": "",
          "type": "bytes"
        }
      ],
      "name": "performUpkeep",
      "outputs": [],
      "stateMutability": "nonpayable",
      "type": "function"
    },
    {
      "inputs": [],
      "name": "renounceOwnership",
      "outputs": [],
      "stateMutability": "nonpayable",
      "type": "function"
    },
    {
      "inputs": [
        {
          "internalType": "uint256",
          "name": "tokenId",
          "type": "uint256"
        }
      ],
      "name": "revokeCertificate",
      "outputs": [],
      "stateMutability": "nonpayable",
      "type": "function"
    },
    {
      "inputs": [
        {
          "internalType": "bytes4",
          "name": "interfaceId",
          "type": "bytes4"
        }
      ],
      "name": "supportsInterface",
      "outputs": [
        {
          "internalType": "bool",
          "name": "",
          "type": "bool"
        }
      ],
      "stateMutability": "view",
      "type": "function"
    },
    {
      "inputs": [],
      "name": "symbol",
      "outputs": [
        {
          "internalType": "string",
          "name": "",
          "type": "string"
        }
      ],
      "stateMutability": "view",
      "type": "function"
    },
    {
      "inputs": [
        {
          "internalType": "uint256",
          "name": "tokenId",
          "type": "uint256"
        }
      ],
      "name": "tokenURI",
      "outputs": [
        {
          "internalType": "string",
          "name": "",
          "type": "string"
        }
      ],
      "stateMutability": "view",
      "type": "function"
    },
    {
      "inputs": [
        {
          "internalType": "address",
          "name": "newOwner",
          "type": "address"
        }
      ],
      "name": "transferOwnership",
      "outputs": [],
      "stateMutability": "nonpayable",
      "type": "function"
    },
    {
      "inputs": [],
      "name": "withdrawProceeds",
      "outputs": [],
      "stateMutability": "payable",
      "type": "function"
    }
  ],
  "transactionHash": "0x17f62190283a134f0a14f4dcde019c8aa70637d1ca8b81d72104a5704ca991f2",
  "args": [
    "30"
  ],
  "numDeployments": 2,
  "solcInputHash": "ba318b1bd7e3b0ed73d5d456fa5eec86",
  "bytecode": "0x60a06040523480156200001157600080fd5b5060405162004c2038038062004c20833981810160405281019062000037919062000256565b6040518060400160405280601481526020017f4469676974616c20526967687473204d61796b720000000000000000000000008152506040518060400160405280600381526020017f44524d00000000000000000000000000000000000000000000000000000000008152508160049081620000b49190620004f8565b508060059081620000c69190620004f8565b5033600860006101000a81548173ffffffffffffffffffffffffffffffffffffffff021916908373ffffffffffffffffffffffffffffffffffffffff16021790555050506200012a6200011e6200014860201b60201c565b6200015060201b60201c565b6001600a81905550806080818152505042600b8190555050620005df565b600033905090565b6000600960009054906101000a900473ffffffffffffffffffffffffffffffffffffffff16905081600960006101000a81548173ffffffffffffffffffffffffffffffffffffffff021916908373ffffffffffffffffffffffffffffffffffffffff1602179055508173ffffffffffffffffffffffffffffffffffffffff168173ffffffffffffffffffffffffffffffffffffffff167f8be0079c531659141344cd1fd0a4f28419497f9722a3daafe3b4186f6b6457e060405160405180910390a35050565b600080fd5b6000819050919050565b62000230816200021b565b81146200023c57600080fd5b50565b600081519050620002508162000225565b92915050565b6000602082840312156200026f576200026e62000216565b5b60006200027f848285016200023f565b91505092915050565b600081519050919050565b7f4e487b7100000000000000000000000000000000000000000000000000000000600052604160045260246000fd5b7f4e487b7100000000000000000000000000000000000000000000000000000000600052602260045260246000fd5b600060028204905060018216806200030a57607f821691505b60208210810362000320576200031f620002c2565b5b50919050565b60008190508160005260206000209050919050565b60006020601f8301049050919050565b600082821b905092915050565b6000600883026200038a7fffffffffffffffffffffffffffffffffffffffffffffffffffffffffffffffff826200034b565b6200039686836200034b565b95508019841693508086168417925050509392505050565b6000819050919050565b6000620003d9620003d3620003cd846200021b565b620003ae565b6200021b565b9050919050565b6000819050919050565b620003f583620003b8565b6200040d6200040482620003e0565b84845462000358565b825550505050565b600090565b6200042462000415565b62000431818484620003ea565b505050565b5b8181101562000459576200044d6000826200041a565b60018101905062000437565b5050565b601f821115620004a857620004728162000326565b6200047d846200033b565b810160208510156200048d578190505b620004a56200049c856200033b565b83018262000436565b50505b505050565b600082821c905092915050565b6000620004cd60001984600802620004ad565b1980831691505092915050565b6000620004e88383620004ba565b9150826002028217905092915050565b620005038262000288565b67ffffffffffffffff8111156200051f576200051e62000293565b5b6200052b8254620002f1565b620005388282856200045d565b600060209050601f8311600181146200057057600084156200055b578287015190505b620005678582620004da565b865550620005d7565b601f198416620005808662000326565b60005b82811015620005aa5784890151825560018201915060208501945060208101905062000583565b86831015620005ca5784890151620005c6601f891682620004ba565b8355505b6001600288020188555050505b505050505050565b608051614625620005fb600039600061109901526146256000f3fe6080604052600436106101b75760003560e01c80636e04ff0d116100ec578063c87b56dd1161008a578063f2fde38b11610064578063f2fde38b14610651578063f577a5001461067a578063f7ef774b146106b7578063fb37e883146106f4576101b7565b8063c87b56dd146105bb578063e538b340146105f8578063f277997014610614576101b7565b80638da5cb5b116100c65780638da5cb5b1461051e5780639038e6931461054957806395d89b4114610553578063b0739e9c1461057e576101b7565b80636e04ff0d1461048c57806370a08231146104ca578063715018a614610507576101b7565b80634394551211610159578063525dc3a611610133578063525dc3a6146103be5780635f9c72aa146103e75780636352211e146104245780636b4ed21b14610461576101b7565b8063439455121461031b5780634585e33b146103585780634bbba37114610381576101b7565b806316011e631161019557806316011e631461024d5780631f33fd631461028a57806326019c18146102b357806330cfeda9146102de576101b7565b806301ffc9a7146101bc57806306f5497e146101f957806306fdde0314610222575b600080fd5b3480156101c857600080fd5b506101e360048036038101906101de9190613148565b61071d565b6040516101f09190613190565b60405180910390f35b34801561020557600080fd5b50610220600480360381019061021b91906131e1565b610867565b005b34801561022e57600080fd5b5061023761087b565b604051610244919061329e565b60405180910390f35b34801561025957600080fd5b50610274600480360381019061026f91906131e1565b61090d565b60405161028191906133b0565b60405180910390f35b34801561029657600080fd5b506102b160048036038101906102ac91906131e1565b6109b7565b005b3480156102bf57600080fd5b506102c8610ae2565b6040516102d591906133e1565b60405180910390f35b3480156102ea57600080fd5b5061030560048036038101906103009190613428565b610aec565b60405161031291906133e1565b60405180910390f35b34801561032757600080fd5b50610342600480360381019061033d9190613428565b610b35565b60405161034f9190613190565b60405180910390f35b34801561036457600080fd5b5061037f600480360381019061037a91906134ba565b610b80565b005b34801561038d57600080fd5b506103a860048036038101906103a391906131e1565b610e2d565b6040516103b591906133e1565b60405180910390f35b3480156103ca57600080fd5b506103e560048036038101906103e09190613507565b610e52565b005b3480156103f357600080fd5b5061040e60048036038101906104099190613547565b610f88565b60405161041b9190613190565b60405180910390f35b34801561043057600080fd5b5061044b600480360381019061044691906131e1565b610ff8565b6040516104589190613596565b60405180910390f35b34801561046d57600080fd5b5061047661102e565b60405161048391906133e1565b60405180910390f35b34801561049857600080fd5b506104b360048036038101906104ae91906136e1565b611038565b6040516104c192919061377f565b60405180910390f35b3480156104d657600080fd5b506104f160048036038101906104ec9190613428565b6112c0565b6040516104fe91906133e1565b60405180910390f35b34801561051357600080fd5b5061051c61130c565b005b34801561052a57600080fd5b50610533611320565b6040516105409190613596565b60405180910390f35b61055161134a565b005b34801561055f57600080fd5b50610568611555565b604051610575919061329e565b60405180910390f35b34801561058a57600080fd5b506105a560048036038101906105a09190613547565b6115e7565b6040516105b291906133e1565b60405180910390f35b3480156105c757600080fd5b506105e260048036038101906105dd91906131e1565b6116a5565b6040516105ef919061329e565b60405180910390f35b610612600480360381019061060d91906137af565b61175d565b005b34801561062057600080fd5b5061063b60048036038101906106369190613547565b611ba9565b604051610648919061329e565b60405180910390f35b34801561065d57600080fd5b5061067860048036038101906106739190613428565b611c95565b005b34801561068657600080fd5b506106a1600480360381019061069c91906131e1565b611d18565b6040516106ae9190613190565b60405180910390f35b3480156106c357600080fd5b506106de60048036038101906106d991906131e1565b611d3b565b6040516106eb9190613190565b60405180910390f35b34801561070057600080fd5b5061071b600480360381019061071691906138a3565b611d6d565b005b60007fa511533d000000000000000000000000000000000000000000000000000000007bffffffffffffffffffffffffffffffffffffffffffffffffffffffff1916827bffffffffffffffffffffffffffffffffffffffffffffffffffffffff191614806107e857507f5b5e139f000000000000000000000000000000000000000000000000000000007bffffffffffffffffffffffffffffffffffffffffffffffffffffffff1916827bffffffffffffffffffffffffffffffffffffffffffffffffffffffff1916145b8061085057507f4d4f4e03000000000000000000000000000000000000000000000000000000007bffffffffffffffffffffffffffffffffffffffffffffffffffffffff1916827bffffffffffffffffffffffffffffffffffffffffffffffffffffffff1916145b80610860575061085f82611dec565b5b9050919050565b61086f611e56565b61087881611ed4565b50565b60606004805461088a9061391b565b80601f01602080910402602001604051908101604052809291908181526020018280546108b69061391b565b80156109035780601f106108d857610100808354040283529160200191610903565b820191906000526020600020905b8154815290600101906020018083116108e657829003601f168201915b5050505050905090565b60606000600c60008481526020019081526020016000209050806003018054806020026020016040519081016040528092919081815260200182805480156109aa57602002820191906000526020600020905b8160009054906101000a900473ffffffffffffffffffffffffffffffffffffffff1673ffffffffffffffffffffffffffffffffffffffff1681526020019060010190808311610960575b5050505050915050919050565b6109c08161209f565b506000600c600083815260200190815260200160002090503373ffffffffffffffffffffffffffffffffffffffff166109f883610ff8565b73ffffffffffffffffffffffffffffffffffffffff1614610a45576040517f82e537b300000000000000000000000000000000000000000000000000000000815260040160405180910390fd5b600015158160020160009054906101000a900460ff16151503610a94576040517fa18127fb00000000000000000000000000000000000000000000000000000000815260040160405180910390fd5b817fc7b716ed0a741b36dcb658966bd6712610c1355f85ad1b6822bda21d12dea7db60405160405180910390a260008160020160006101000a81548160ff0219169083151502179055505050565b6000600654905090565b6000600d60008373ffffffffffffffffffffffffffffffffffffffff1673ffffffffffffffffffffffffffffffffffffffff168152602001908152602001600020549050919050565b600080600360008473ffffffffffffffffffffffffffffffffffffffff1673ffffffffffffffffffffffffffffffffffffffff16815260200190815260200160002054119050919050565b6000610b9a60405180602001604052806000815250611038565b50905080610bd4576040517f4fbf204900000000000000000000000000000000000000000000000000000000815260040160405180910390fd5b6000610bde610ae2565b67ffffffffffffffff811115610bf757610bf66135b6565b5b604051908082528060200260200182016040528015610c255781602001602082028036833780820191505090505b50905060005b610c33610ae2565b811015610df6576000600c600083815260200190815260200160002090508060030180549050838381518110610c6c57610c6b61394c565b5b602002602001018181525050600115158160020160009054906101000a900460ff161515148015610cb757506000838381518110610cad57610cac61394c565b5b6020026020010151115b15610de25760006001848481518110610cd357610cd261394c565b5b6020026020010151610ce591906139aa565b90505b60008110610de05742826004016000846003018481548110610d0d57610d0c61394c565b5b9060005260206000200160009054906101000a900473ffffffffffffffffffffffffffffffffffffffff1673ffffffffffffffffffffffffffffffffffffffff1673ffffffffffffffffffffffffffffffffffffffff168152602001908152602001600020541015610dc457610dc383836003018381548110610d9357610d9261394c565b5b9060005260206000200160009054906101000a900473ffffffffffffffffffffffffffffffffffffffff16612152565b5b6000810315610de0578080610dd8906139de565b915050610ce8565b505b508080610dee90613a07565b915050610c2b565b50600115157f83a47186345bb0297912a376a26e9563bbab6eea5eb47e6f0c4b99a2584d3d9560405160405180910390a250505050565b600080600c600084815260200190815260200160002090508060010154915050919050565b610e5b8261209f565b506000600c600084815260200190815260200160002090503373ffffffffffffffffffffffffffffffffffffffff16610e9384610ff8565b73ffffffffffffffffffffffffffffffffffffffff1614610ee0576040517f82e537b300000000000000000000000000000000000000000000000000000000815260040160405180910390fd5b600115158160020160009054906101000a900460ff16151503610f2f576040517f21460fa200000000000000000000000000000000000000000000000000000000815260040160405180910390fd5b82827ff15606de6a0a3065c3c97d5a2f089b2c9d3a8a0755041af789f81beebc95f6c960405160405180910390a381816001018190555060018160020160006101000a81548160ff021916908315150217905550505050565b600080600c600085815260200190815260200160002090508060060160008473ffffffffffffffffffffffffffffffffffffffff1673ffffffffffffffffffffffffffffffffffffffff16815260200190815260200160002060009054906101000a900460ff1691505092915050565b60006110038261209f565b60010160009054906101000a900473ffffffffffffffffffffffffffffffffffffffff169050919050565b6000600754905090565b600060606000611046610ae2565b905060008167ffffffffffffffff811115611064576110636135b6565b5b6040519080825280602002602001820160405280156110925781602001602082028036833780820191505090505b50905060007f0000000000000000000000000000000000000000000000000000000000000000600b54426110c691906139aa565b119050600080841190506000806000805b87811015611251576000600c6000838152602001908152602001600020905080600301805490508883815181106111115761111061394c565b5b602002602001018181525050600115158160020160009054906101000a900460ff1615150361113f57600194505b60008160030180549050111561115457600193505b60005b88838151811061116a5761116961394c565b5b602002602001015181101561121e57428260040160008460030184815481106111965761119561394c565b5b9060005260206000200160009054906101000a900473ffffffffffffffffffffffffffffffffffffffff1673ffffffffffffffffffffffffffffffffffffffff1673ffffffffffffffffffffffffffffffffffffffff16815260200190815260200160002054101561120b576001935061121e565b808061121690613a07565b915050611157565b508480156112295750835b80156112325750825b1561123d5750611251565b50808061124990613a07565b9150506110d7565b5084801561125c5750835b80156112655750825b801561126e5750815b80156112775750805b9850886040518060400160405280600381526020017f30783000000000000000000000000000000000000000000000000000000000008152509850985050505050505050915091565b6000600160008373ffffffffffffffffffffffffffffffffffffffff1673ffffffffffffffffffffffffffffffffffffffff168152602001908152602001600020805490509050919050565b611314611e56565b61131e60006124c7565b565b6000600960009054906101000a900473ffffffffffffffffffffffffffffffffffffffff16905090565b61135261258d565b6000600d60003373ffffffffffffffffffffffffffffffffffffffff1673ffffffffffffffffffffffffffffffffffffffff16815260200190815260200160002054905060008111156113e9576000600d60003373ffffffffffffffffffffffffffffffffffffffff1673ffffffffffffffffffffffffffffffffffffffff1681526020019081526020016000208190555061141b565b6040517f6925f4c400000000000000000000000000000000000000000000000000000000815260040160405180910390fd5b60003373ffffffffffffffffffffffffffffffffffffffff168260405161144190613a80565b60006040518083038185875af1925050503d806000811461147e576040519150601f19603f3d011682016040523d82523d6000602084013e611483565b606091505b50509050806115025781600d60003373ffffffffffffffffffffffffffffffffffffffff1673ffffffffffffffffffffffffffffffffffffffff168152602001908152602001600020819055506040517fec1e1cc300000000000000000000000000000000000000000000000000000000815260040160405180910390fd5b8015153373ffffffffffffffffffffffffffffffffffffffff16837fcdeaa56b4f47bc9f929a0a8ef4a441c85f6b3fcf27836b68ee42d67e96ff758960405160405180910390a450506115536125dc565b565b6060600580546115649061391b565b80601f01602080910402602001604051908101604052809291908181526020018280546115909061391b565b80156115dd5780601f106115b2576101008083540402835291602001916115dd565b820191906000526020600020905b8154815290600101906020018083116115c057829003601f168201915b5050505050905090565b600080600c60008581526020019081526020016000209050428160040160008573ffffffffffffffffffffffffffffffffffffffff1673ffffffffffffffffffffffffffffffffffffffff168152602001908152602001600020541061169957428160040160008573ffffffffffffffffffffffffffffffffffffffff1673ffffffffffffffffffffffffffffffffffffffff1681526020019081526020016000205461169491906139aa565b61169c565b60005b91505092915050565b60606116b08261209f565b506000600c600084815260200190815260200160002090508060000180546116d79061391b565b80601f01602080910402602001604051908101604052809291908181526020018280546117039061391b565b80156117505780601f1061172557610100808354040283529160200191611750565b820191906000526020600020905b81548152906001019060200180831161173357829003601f168201915b5050505050915050919050565b61176561258d565b6000600c600085815260200190815260200160002090508173ffffffffffffffffffffffffffffffffffffffff1661179c85610ff8565b73ffffffffffffffffffffffffffffffffffffffff16148061180957508060060160008373ffffffffffffffffffffffffffffffffffffffff1673ffffffffffffffffffffffffffffffffffffffff16815260200190815260200160002060009054906101000a900460ff165b15611840576040517f3290597800000000000000000000000000000000000000000000000000000000815260040160405180910390fd5b8060020160009054906101000a900460ff16611888576040517f8092deae00000000000000000000000000000000000000000000000000000000815260040160405180910390fd5b6000151561189585611d18565b1515036118ce576040517f2cb1fb6700000000000000000000000000000000000000000000000000000000815260040160405180910390fd5b348160010154111561190c576040517f8e5892e900000000000000000000000000000000000000000000000000000000815260040160405180910390fd5b80600301829080600181540180825580915050600190039060005260206000200160009091909190916101000a81548173ffffffffffffffffffffffffffffffffffffffff021916908373ffffffffffffffffffffffffffffffffffffffff160217905550824261197d9190613a95565b8160040160008473ffffffffffffffffffffffffffffffffffffffff1673ffffffffffffffffffffffffffffffffffffffff168152602001908152602001600020819055506119cd8484846125e6565b8160050160008473ffffffffffffffffffffffffffffffffffffffff1673ffffffffffffffffffffffffffffffffffffffff1681526020019081526020016000209081611a1a9190613c75565b5060018160060160008473ffffffffffffffffffffffffffffffffffffffff1673ffffffffffffffffffffffffffffffffffffffff16815260200190815260200160002060006101000a81548160ff02191690831515021790555034600d6000611a8387610ff8565b73ffffffffffffffffffffffffffffffffffffffff1673ffffffffffffffffffffffffffffffffffffffff1681526020019081526020016000206000828254611acc9190613a95565b92505081905550838160040160008473ffffffffffffffffffffffffffffffffffffffff1673ffffffffffffffffffffffffffffffffffffffff168152602001908152602001600020547fc1a4e46d68be810b14940f2a64e17f1dc4ba49ff9772f297b1fb608df190d9708360060160008673ffffffffffffffffffffffffffffffffffffffff1673ffffffffffffffffffffffffffffffffffffffff16815260200190815260200160002060009054906101000a900460ff16604051611b939190613190565b60405180910390a350611ba46125dc565b505050565b60606000600c600085815260200190815260200160002090508060050160008473ffffffffffffffffffffffffffffffffffffffff1673ffffffffffffffffffffffffffffffffffffffff1681526020019081526020016000208054611c0e9061391b565b80601f0160208091040260200160405190810160405280929190818152602001828054611c3a9061391b565b8015611c875780601f10611c5c57610100808354040283529160200191611c87565b820191906000526020600020905b815481529060010190602001808311611c6a57829003601f168201915b505050505091505092915050565b611c9d611e56565b600073ffffffffffffffffffffffffffffffffffffffff168173ffffffffffffffffffffffffffffffffffffffff1603611d0c576040517f08c379a0000000000000000000000000000000000000000000000000000000008152600401611d0390613db9565b60405180910390fd5b611d15816124c7565b50565b6000611d238261209f565b60010160149054906101000a900460ff169050919050565b600080600c600084815260200190815260200160002090508060020160009054906101000a900460ff16915050919050565b6000611d77610ae2565b90506000600c60008381526020019081526020016000209050611d993361275e565b5082816000019081611dab9190613c75565b50817fbda0610fb2d79eb4738c314b0a0b29d8ddb357941fc92faefd4cbb40b6c122a582600001604051611ddf9190613e5d565b60405180910390a2505050565b60007f01ffc9a7000000000000000000000000000000000000000000000000000000007bffffffffffffffffffffffffffffffffffffffffffffffffffffffff1916827bffffffffffffffffffffffffffffffffffffffffffffffffffffffff1916149050919050565b611e5e6127c9565b73ffffffffffffffffffffffffffffffffffffffff16611e7c611320565b73ffffffffffffffffffffffffffffffffffffffff1614611ed2576040517f08c379a0000000000000000000000000000000000000000000000000000000008152600401611ec990613ecb565b60405180910390fd5b565b6000611edf8261209f565b90508060010160149054906101000a900460ff16611f32576040517f08c379a0000000000000000000000000000000000000000000000000000000008152600401611f2990613f37565b60405180910390fd5b60008160010160146101000a81548160ff0219169083151502179055506000600360008360010160009054906101000a900473ffffffffffffffffffffffffffffffffffffffff1673ffffffffffffffffffffffffffffffffffffffff1673ffffffffffffffffffffffffffffffffffffffff1681526020019081526020016000205411611fc357611fc2613f57565b5b6001600360008360010160009054906101000a900473ffffffffffffffffffffffffffffffffffffffff1673ffffffffffffffffffffffffffffffffffffffff1673ffffffffffffffffffffffffffffffffffffffff168152602001908152602001600020600082825461203791906139aa565b925050819055507f713b90881ad62c4fa8ab6bd9197fa86481fc0c11b2edba60026514281b2dbac48160010160009054906101000a900473ffffffffffffffffffffffffffffffffffffffff1683604051612093929190613f86565b60405180910390a15050565b6000806000808481526020019081526020016000209050600073ffffffffffffffffffffffffffffffffffffffff168160010160009054906101000a900473ffffffffffffffffffffffffffffffffffffffff1673ffffffffffffffffffffffffffffffffffffffff1603612149576040517f08c379a000000000000000000000000000000000000000000000000000000000815260040161214090613ffb565b60405180910390fd5b80915050919050565b818161215d8261209f565b506000600c6000848152602001908152602001600020905060008160040160008473ffffffffffffffffffffffffffffffffffffffff1673ffffffffffffffffffffffffffffffffffffffff16815260200190815260200160002054036121f0576040517f9de37bc200000000000000000000000000000000000000000000000000000000815260040160405180910390fd5b428160040160008473ffffffffffffffffffffffffffffffffffffffff1673ffffffffffffffffffffffffffffffffffffffff16815260200190815260200160002054111561226b576040517f9ce5e57600000000000000000000000000000000000000000000000000000000815260040160405180910390fd5b6122748561209f565b506000600c6000878152602001908152602001600020905060005b8160030180549050811015612464578573ffffffffffffffffffffffffffffffffffffffff168260030182815481106122cb576122ca61394c565b5b9060005260206000200160009054906101000a900473ffffffffffffffffffffffffffffffffffffffff1673ffffffffffffffffffffffffffffffffffffffff160361245157868673ffffffffffffffffffffffffffffffffffffffff167fc73ad78a77cee4f2edf86fb7902dddaee64a464222980ab9ee98497cdf6d1e7860405160405180910390a3816003016001836003018054905061236d91906139aa565b8154811061237e5761237d61394c565b5b9060005260206000200160009054906101000a900473ffffffffffffffffffffffffffffffffffffffff168260030182815481106123bf576123be61394c565b5b9060005260206000200160006101000a81548173ffffffffffffffffffffffffffffffffffffffff021916908373ffffffffffffffffffffffffffffffffffffffff1602179055508160030180548061241b5761241a61401b565b5b6001900381819060005260206000200160006101000a81549073ffffffffffffffffffffffffffffffffffffffff021916905590555b808061245c90613a07565b91505061228f565b5060008160060160008773ffffffffffffffffffffffffffffffffffffffff1673ffffffffffffffffffffffffffffffffffffffff16815260200190815260200160002060006101000a81548160ff021916908315150217905550505050505050565b6000600960009054906101000a900473ffffffffffffffffffffffffffffffffffffffff16905081600960006101000a81548173ffffffffffffffffffffffffffffffffffffffff021916908373ffffffffffffffffffffffffffffffffffffffff1602179055508173ffffffffffffffffffffffffffffffffffffffff168173ffffffffffffffffffffffffffffffffffffffff167f8be0079c531659141344cd1fd0a4f28419497f9722a3daafe3b4186f6b6457e060405160405180910390a35050565b6002600a54036125d2576040517f08c379a00000000000000000000000000000000000000000000000000000000081526004016125c990614096565b60405180910390fd5b6002600a81905550565b6001600a81905550565b6060600083426125f69190613a95565b90506000806000612606846127d1565b925092509250600061262f3373ffffffffffffffffffffffffffffffffffffffff166014612805565b905060006126548873ffffffffffffffffffffffffffffffffffffffff166014612805565b905060006126618b612a41565b9050600061266e87612a41565b9050600061267b87612a41565b9050600061268887612a41565b905060008686868486886040516020016126a79695949392919061432c565b604051602081830303815290604052905060008284866040516020016126cf9392919061441d565b60405160208183030381529060405290508f8e73ffffffffffffffffffffffffffffffffffffffff163373ffffffffffffffffffffffffffffffffffffffff167f10b55d68fbface02256fafde2dfb9d65364fc0186c67c07bdbf695c8e0b72612858560405161274092919061446f565b60405180910390a4819c505050505050505050505050509392505050565b6000600654905061277182826001612b0f565b7f30385c845b448a36257a6a1716e6ad2e1bc2cbe333cde1e69fe849ad6511adfe82826040516127a2929190613f86565b60405180910390a16001600660008282546127bd9190613a95565b92505081905550919050565b600033905090565b60008060006127f26201518085816127ec576127eb6144a6565b5b04612e84565b8093508194508295505050509193909250565b60606000600283600261281891906144d5565b6128229190613a95565b67ffffffffffffffff81111561283b5761283a6135b6565b5b6040519080825280601f01601f19166020018201604052801561286d5781602001600182028036833780820191505090505b5090507f3000000000000000000000000000000000000000000000000000000000000000816000815181106128a5576128a461394c565b5b60200101907effffffffffffffffffffffffffffffffffffffffffffffffffffffffffffff1916908160001a9053507f7800000000000000000000000000000000000000000000000000000000000000816001815181106129095761290861394c565b5b60200101907effffffffffffffffffffffffffffffffffffffffffffffffffffffffffffff1916908160001a9053506000600184600261294991906144d5565b6129539190613a95565b90505b60018111156129f3577f3031323334353637383961626364656600000000000000000000000000000000600f8616601081106129955761299461394c565b5b1a60f81b8282815181106129ac576129ab61394c565b5b60200101907effffffffffffffffffffffffffffffffffffffffffffffffffffffffffffff1916908160001a905350600485901c9450806129ec906139de565b9050612956565b5060008414612a37576040517f08c379a0000000000000000000000000000000000000000000000000000000008152600401612a2e90614563565b60405180910390fd5b8091505092915050565b606060006001612a5084612f89565b01905060008167ffffffffffffffff811115612a6f57612a6e6135b6565b5b6040519080825280601f01601f191660200182016040528015612aa15781602001600182028036833780820191505090505b509050600082602001820190505b600115612b04578080600190039150507f3031323334353637383961626364656600000000000000000000000000000000600a86061a8153600a8581612af857612af76144a6565b5b04945060008503612aaf575b819350505050919050565b600073ffffffffffffffffffffffffffffffffffffffff1660008084815260200190815260200160002060010160009054906101000a900473ffffffffffffffffffffffffffffffffffffffff1673ffffffffffffffffffffffffffffffffffffffff1614612bb3576040517f08c379a0000000000000000000000000000000000000000000000000000000008152600401612baa906145cf565b60405180910390fd5b6000600160008573ffffffffffffffffffffffffffffffffffffffff1673ffffffffffffffffffffffffffffffffffffffff1681526020019081526020016000208054905003612c1857600160076000828254612c109190613a95565b925050819055505b60405180606001604052803373ffffffffffffffffffffffffffffffffffffffff1681526020018473ffffffffffffffffffffffffffffffffffffffff16815260200182151581525060008084815260200190815260200160002060008201518160000160006101000a81548173ffffffffffffffffffffffffffffffffffffffff021916908373ffffffffffffffffffffffffffffffffffffffff16021790555060208201518160010160006101000a81548173ffffffffffffffffffffffffffffffffffffffff021916908373ffffffffffffffffffffffffffffffffffffffff16021790555060408201518160010160146101000a81548160ff021916908315150217905550905050600160008473ffffffffffffffffffffffffffffffffffffffff1673ffffffffffffffffffffffffffffffffffffffff16815260200190815260200160002080549050600260008573ffffffffffffffffffffffffffffffffffffffff1673ffffffffffffffffffffffffffffffffffffffff168152602001908152602001600020600084815260200190815260200160002081905550600160008473ffffffffffffffffffffffffffffffffffffffff1673ffffffffffffffffffffffffffffffffffffffff1681526020019081526020016000208290806001815401808255809150506001900390600052602060002001600090919091909150558015612e7f576001600360008573ffffffffffffffffffffffffffffffffffffffff1673ffffffffffffffffffffffffffffffffffffffff1681526020019081526020016000206000828254612e779190613a95565b925050819055505b505050565b600080600080849050600062253d8c62010bd98301019050600062023ab18260040281612eb457612eb36144a6565b5b059050600460038262023ab1020181612ed057612ecf6144a6565b5b0582039150600062164b0960018401610fa00281612ef157612ef06144a6565b5b059050601f6004826105b50281612f0b57612f0a6144a6565b5b058403019250600061098f8460500281612f2857612f276144a6565b5b059050600060508261098f0281612f4257612f416144a6565b5b0585039050600b8281612f5857612f576144a6565b5b05945084600c0260028301039150848360318603606402010192508298508197508096505050505050509193909250565b600080600090507a184f03e93ff9f4daa797ed6e38ed64bf6a1f0100000000000000008310612fe7577a184f03e93ff9f4daa797ed6e38ed64bf6a1f0100000000000000008381612fdd57612fdc6144a6565b5b0492506040810190505b6d04ee2d6d415b85acef81000000008310613024576d04ee2d6d415b85acef8100000000838161301a576130196144a6565b5b0492506020810190505b662386f26fc10000831061305357662386f26fc100008381613049576130486144a6565b5b0492506010810190505b6305f5e100831061307c576305f5e1008381613072576130716144a6565b5b0492506008810190505b61271083106130a1576127108381613097576130966144a6565b5b0492506004810190505b606483106130c457606483816130ba576130b96144a6565b5b0492506002810190505b600a83106130d3576001810190505b80915050919050565b6000604051905090565b600080fd5b600080fd5b60007fffffffff0000000000000000000000000000000000000000000000000000000082169050919050565b613125816130f0565b811461313057600080fd5b50565b6000813590506131428161311c565b92915050565b60006020828403121561315e5761315d6130e6565b5b600061316c84828501613133565b91505092915050565b60008115159050919050565b61318a81613175565b82525050565b60006020820190506131a56000830184613181565b92915050565b6000819050919050565b6131be816131ab565b81146131c957600080fd5b50565b6000813590506131db816131b5565b92915050565b6000602082840312156131f7576131f66130e6565b5b6000613205848285016131cc565b91505092915050565b600081519050919050565b600082825260208201905092915050565b60005b8381101561324857808201518184015260208101905061322d565b60008484015250505050565b6000601f19601f8301169050919050565b60006132708261320e565b61327a8185613219565b935061328a81856020860161322a565b61329381613254565b840191505092915050565b600060208201905081810360008301526132b88184613265565b905092915050565b600081519050919050565b600082825260208201905092915050565b6000819050602082019050919050565b600073ffffffffffffffffffffffffffffffffffffffff82169050919050565b6000613317826132ec565b9050919050565b6133278161330c565b82525050565b6000613339838361331e565b60208301905092915050565b6000602082019050919050565b600061335d826132c0565b61336781856132cb565b9350613372836132dc565b8060005b838110156133a357815161338a888261332d565b975061339583613345565b925050600181019050613376565b5085935050505092915050565b600060208201905081810360008301526133ca8184613352565b905092915050565b6133db816131ab565b82525050565b60006020820190506133f660008301846133d2565b92915050565b6134058161330c565b811461341057600080fd5b50565b600081359050613422816133fc565b92915050565b60006020828403121561343e5761343d6130e6565b5b600061344c84828501613413565b91505092915050565b600080fd5b600080fd5b600080fd5b60008083601f84011261347a57613479613455565b5b8235905067ffffffffffffffff8111156134975761349661345a565b5b6020830191508360018202830111156134b3576134b261345f565b5b9250929050565b600080602083850312156134d1576134d06130e6565b5b600083013567ffffffffffffffff8111156134ef576134ee6130eb565b5b6134fb85828601613464565b92509250509250929050565b6000806040838503121561351e5761351d6130e6565b5b600061352c858286016131cc565b925050602061353d858286016131cc565b9150509250929050565b6000806040838503121561355e5761355d6130e6565b5b600061356c858286016131cc565b925050602061357d85828601613413565b9150509250929050565b6135908161330c565b82525050565b60006020820190506135ab6000830184613587565b92915050565b600080fd5b7f4e487b7100000000000000000000000000000000000000000000000000000000600052604160045260246000fd5b6135ee82613254565b810181811067ffffffffffffffff8211171561360d5761360c6135b6565b5b80604052505050565b60006136206130dc565b905061362c82826135e5565b919050565b600067ffffffffffffffff82111561364c5761364b6135b6565b5b61365582613254565b9050602081019050919050565b82818337600083830152505050565b600061368461367f84613631565b613616565b9050828152602081018484840111156136a05761369f6135b1565b5b6136ab848285613662565b509392505050565b600082601f8301126136c8576136c7613455565b5b81356136d8848260208601613671565b91505092915050565b6000602082840312156136f7576136f66130e6565b5b600082013567ffffffffffffffff811115613715576137146130eb565b5b613721848285016136b3565b91505092915050565b600081519050919050565b600082825260208201905092915050565b60006137518261372a565b61375b8185613735565b935061376b81856020860161322a565b61377481613254565b840191505092915050565b60006040820190506137946000830185613181565b81810360208301526137a68184613746565b90509392505050565b6000806000606084860312156137c8576137c76130e6565b5b60006137d6868287016131cc565b93505060206137e7868287016131cc565b92505060406137f886828701613413565b9150509250925092565b600067ffffffffffffffff82111561381d5761381c6135b6565b5b61382682613254565b9050602081019050919050565b600061384661384184613802565b613616565b905082815260208101848484011115613862576138616135b1565b5b61386d848285613662565b509392505050565b600082601f83011261388a57613889613455565b5b813561389a848260208601613833565b91505092915050565b6000602082840312156138b9576138b86130e6565b5b600082013567ffffffffffffffff8111156138d7576138d66130eb565b5b6138e384828501613875565b91505092915050565b7f4e487b7100000000000000000000000000000000000000000000000000000000600052602260045260246000fd5b6000600282049050600182168061393357607f821691505b602082108103613946576139456138ec565b5b50919050565b7f4e487b7100000000000000000000000000000000000000000000000000000000600052603260045260246000fd5b7f4e487b7100000000000000000000000000000000000000000000000000000000600052601160045260246000fd5b60006139b5826131ab565b91506139c0836131ab565b92508282039050818111156139d8576139d761397b565b5b92915050565b60006139e9826131ab565b9150600082036139fc576139fb61397b565b5b600182039050919050565b6000613a12826131ab565b91507fffffffffffffffffffffffffffffffffffffffffffffffffffffffffffffffff8203613a4457613a4361397b565b5b600182019050919050565b600081905092915050565b50565b6000613a6a600083613a4f565b9150613a7582613a5a565b600082019050919050565b6000613a8b82613a5d565b9150819050919050565b6000613aa0826131ab565b9150613aab836131ab565b9250828201905080821115613ac357613ac261397b565b5b92915050565b60008190508160005260206000209050919050565b60006020601f8301049050919050565b600082821b905092915050565b600060088302613b2b7fffffffffffffffffffffffffffffffffffffffffffffffffffffffffffffffff82613aee565b613b358683613aee565b95508019841693508086168417925050509392505050565b6000819050919050565b6000613b72613b6d613b68846131ab565b613b4d565b6131ab565b9050919050565b6000819050919050565b613b8c83613b57565b613ba0613b9882613b79565b848454613afb565b825550505050565b600090565b613bb5613ba8565b613bc0818484613b83565b505050565b5b81811015613be457613bd9600082613bad565b600181019050613bc6565b5050565b601f821115613c2957613bfa81613ac9565b613c0384613ade565b81016020851015613c12578190505b613c26613c1e85613ade565b830182613bc5565b50505b505050565b600082821c905092915050565b6000613c4c60001984600802613c2e565b1980831691505092915050565b6000613c658383613c3b565b9150826002028217905092915050565b613c7e8261320e565b67ffffffffffffffff811115613c9757613c966135b6565b5b613ca1825461391b565b613cac828285613be8565b600060209050601f831160018114613cdf5760008415613ccd578287015190505b613cd78582613c59565b865550613d3f565b601f198416613ced86613ac9565b60005b82811015613d1557848901518255600182019150602085019450602081019050613cf0565b86831015613d325784890151613d2e601f891682613c3b565b8355505b6001600288020188555050505b505050505050565b7f4f776e61626c653a206e6577206f776e657220697320746865207a65726f206160008201527f6464726573730000000000000000000000000000000000000000000000000000602082015250565b6000613da3602683613219565b9150613dae82613d47565b604082019050919050565b60006020820190508181036000830152613dd281613d96565b9050919050565b60008154613de68161391b565b613df08186613219565b94506001821660008114613e0b5760018114613e2157613e54565b60ff198316865281151560200286019350613e54565b613e2a85613ac9565b60005b83811015613e4c57815481890152600182019150602081019050613e2d565b808801955050505b50505092915050565b60006020820190508181036000830152613e778184613dd9565b905092915050565b7f4f776e61626c653a2063616c6c6572206973206e6f7420746865206f776e6572600082015250565b6000613eb5602083613219565b9150613ec082613e7f565b602082019050919050565b60006020820190508181036000830152613ee481613ea8565b9050919050565b7f546f6b656e20697320616c726561647920696e76616c69640000000000000000600082015250565b6000613f21601883613219565b9150613f2c82613eeb565b602082019050919050565b60006020820190508181036000830152613f5081613f14565b9050919050565b7f4e487b7100000000000000000000000000000000000000000000000000000000600052600160045260246000fd5b6000604082019050613f9b6000830185613587565b613fa860208301846133d2565b9392505050565b7f546f6b656e20646f6573206e6f74206578697374000000000000000000000000600082015250565b6000613fe5601483613219565b9150613ff082613faf565b602082019050919050565b6000602082019050818103600083015261401481613fd8565b9050919050565b7f4e487b7100000000000000000000000000000000000000000000000000000000600052603160045260246000fd5b7f5265656e7472616e637947756172643a207265656e7472616e742063616c6c00600082015250565b6000614080601f83613219565b915061408b8261404a565b602082019050919050565b600060208201905081810360008301526140af81614073565b9050919050565b600081905092915050565b7f546865204172746973743a200000000000000000000000000000000000000000600082015250565b60006140f7600c836140b6565b9150614102826140c1565b600c82019050919050565b60006141188261320e565b61412281856140b6565b935061413281856020860161322a565b80840191505092915050565b7f20686572656279206772616e742074686520426f72726f7765723a2000000000600082015250565b6000614174601c836140b6565b915061417f8261413e565b601c82019050919050565b7f2066756c6c20616e6420756e726573747269637465642072696768747320746f60008201527f20757365207069656365206f6620776f726b2064657363726962656420756e6460208201527f657220746f6b656e49643a200000000000000000000000000000000000000000604082015250565b600061420c604c836140b6565b91506142178261418a565b604c82019050919050565b7f2e205468697320636c617573652077696c6c2062652076616c696420756e746960008201527f6c20656e64206f66200000000000000000000000000000000000000000000000602082015250565b600061427e6029836140b6565b915061428982614222565b602982019050919050565b7f2000000000000000000000000000000000000000000000000000000000000000600082015250565b60006142ca6001836140b6565b91506142d582614294565b600182019050919050565b7f2044444d4d595959590000000000000000000000000000000000000000000000600082015250565b60006143166009836140b6565b9150614321826142e0565b600982019050919050565b6000614337826140ea565b9150614343828961410d565b915061434e82614167565b915061435a828861410d565b9150614365826141ff565b9150614371828761410d565b915061437c82614271565b9150614388828661410d565b9150614393826142bd565b915061439f828561410d565b91506143aa826142bd565b91506143b6828461410d565b91506143c182614309565b9150819050979650505050505050565b7f44444d4d595959593a2000000000000000000000000000000000000000000000600082015250565b6000614407600a836140b6565b9150614412826143d1565b600a82019050919050565b6000614428826143fa565b9150614434828661410d565b915061443f826142bd565b915061444b828561410d565b9150614456826142bd565b9150614462828461410d565b9150819050949350505050565b600060408201905081810360008301526144898185613265565b9050818103602083015261449d8184613265565b90509392505050565b7f4e487b7100000000000000000000000000000000000000000000000000000000600052601260045260246000fd5b60006144e0826131ab565b91506144eb836131ab565b92508282026144f9816131ab565b915082820484148315176145105761450f61397b565b5b5092915050565b7f537472696e67733a20686578206c656e67746820696e73756666696369656e74600082015250565b600061454d602083613219565b915061455882614517565b602082019050919050565b6000602082019050818103600083015261457c81614540565b9050919050565b7f43616e6e6f74206d696e7420616e2061737369676e656420746f6b656e000000600082015250565b60006145b9601d83613219565b91506145c482614583565b602082019050919050565b600060208201905081810360008301526145e8816145ac565b905091905056fea264697066735822122060e85b082d3e3a5dc93beb02ea893bbd17d581842765ba6031ae832f0bb07d4164736f6c63430008120033",
  "devdoc": {
    "errors": {
      "DRM__NotEnoughETH()": [
        {
          "details": "Errors"
        }
      ]
    },
    "events": {
      "TokenUriSet(string,uint256)": {
        "details": "Events"
      }
    },
    "kind": "dev",
    "methods": {
      "allowLending(uint256,uint256)": {
        "params": {
          "price": "Amount of ETH (in Wei), for which license for this tokenId can be bought",
          "tokenId": "Identifier of certificate"
        }
      },
      "balanceOf(address)": {
        "params": {
          "owner": "Address for whom to query the balance"
        },
        "returns": {
          "_0": "Number of tokens owned by `owner`"
        }
      },
      "blockLending(uint256)": {
        "params": {
          "tokenId": "Identifier of certificate"
        }
      },
      "buyLicense(uint256,uint256,address)": {
        "params": {
          "borrower": "address whom will receive permission",
          "lendingTime": "time for how long permission will persist",
          "tokenId": "Identifier of certificate"
        }
      },
      "checkUpkeep(bytes)": {
        "params": {
          "upkeepNeeded": "returns true or false depending on 4 conditions"
        }
      },
      "emittedCount()": {
        "returns": {
          "_0": "emittedCount Number of tokens emitted"
        }
      },
      "getCertsBorrowers(uint256)": {
        "params": {
          "tokenId": "Identifier of certificate"
        }
      },
      "getClause(uint256,address)": {
        "params": {
          "borrower": "Address, which has rights to use specific piece of art described in certificate",
          "tokenId": "Identifier of certificate"
        }
      },
      "getLendingStatus(uint256)": {
        "params": {
          "tokenId": "Identifier of certificate"
        }
      },
      "getLicenseValidity(uint256,address)": {
        "params": {
          "borrower": "Address, which has rights to use specific piece of art described in certificate",
          "tokenId": "Identifier of certificate"
        }
      },
      "hasValid(address)": {
        "params": {
          "owner": "Address for whom to check the ownership"
        },
        "returns": {
          "_0": "True if `owner` has a valid token, false otherwise"
        }
      },
      "holdersCount()": {
        "returns": {
          "_0": "holdersCount Number of token unique holders"
        }
      },
      "isValid(uint256)": {
        "params": {
          "tokenId": "Identifier of the token"
        },
        "returns": {
          "_0": "True if the token is valid, false otherwise"
        }
      },
      "mintNFT(string)": {
        "params": {
          "createdTokenURI": "URI to assign for minted certificate"
        }
      },
      "name()": {
        "returns": {
          "_0": "Descriptive name of the tokens in this contract"
        }
      },
      "owner()": {
        "details": "Returns the address of the current owner."
      },
      "ownerOf(uint256)": {
        "params": {
          "tokenId": "Identifier of the token"
        },
        "returns": {
          "_0": "Address of the owner of `tokenId`"
        }
      },
      "renounceOwnership()": {
        "details": "Leaves the contract without owner. It will not be possible to call `onlyOwner` functions anymore. Can only be called by the current owner. NOTE: Renouncing ownership will leave the contract without an owner, thereby removing any functionality that is only available to the owner."
      },
      "revokeCertificate(uint256)": {
        "params": {
          "tokenId": "Identifier of certificate"
        }
      },
      "symbol()": {
        "returns": {
          "_0": "An abbreviated name of the tokens in this contract"
        }
      },
      "tokenURI(uint256)": {
        "params": {
          "tokenId": "Identifier of certificate"
        },
        "returns": {
          "_0": "URI for the certificate"
        }
      },
      "transferOwnership(address)": {
        "details": "Transfers ownership of the contract to a new account (`newOwner`). Can only be called by the current owner."
      }
    },
    "stateVariables": {
      "i_interval": {
        "details": "Variables"
      },
      "s_certs": {
        "details": "Mappings"
      }
    },
    "version": 1
  },
  "userdoc": {
    "events": {
      "Minted(address,uint256)": {
        "notice": "Event emitted when a token `tokenId` is minted for `owner`"
      },
      "Revoked(address,uint256)": {
        "notice": "Event emitted when token `tokenId` of `owner` is revoked"
      }
    },
    "kind": "user",
    "methods": {
      "allowLending(uint256,uint256)": {
        "notice": "Allows owner of tokenId(Certificate) to make this token borrowable by other users"
      },
      "balanceOf(address)": {
        "notice": "Count all tokens assigned to an owner"
      },
      "blockLending(uint256)": {
        "notice": "Allows owner of tokenId(Certificate) to make this token unborrowable"
      },
      "buyLicense(uint256,uint256,address)": {
        "notice": "Gives permission to borrower to use copyrights assigned to specific certificate marked by tokenId"
      },
      "checkUpkeep(bytes)": {
        "notice": "This is the function that the Chainlink Keeper nodes call to check if performing upkeep is needed"
      },
      "getCertsBorrowers(uint256)": {
        "notice": "Returns all active borrowers of specific certificate(tokenId)"
      },
      "getClause(uint256,address)": {
        "notice": "Returns clause for certain tokenId and borrower"
      },
      "getExpirationTime(uint256,address)": {
        "notice": "Tells if given certificate(tokenId) is allowed to be borrowed by other users"
      },
      "getLendingStatus(uint256)": {
        "notice": "Tells if given certificate(tokenId) is allowed to be borrowed by other users"
      },
      "getLicenseValidity(uint256,address)": {
        "notice": "Tells if given borrower is allowed to use given certificate(tokenId)"
      },
      "hasValid(address)": {
        "notice": "Check if an address owns a valid token in the contract"
      },
      "isValid(uint256)": {
        "notice": "Check if a token hasn't been revoked"
      },
      "mintNFT(string)": {
        "notice": "Mint a new certificate (Token/NFT)"
      },
      "ownerOf(uint256)": {
        "notice": "Get owner of a token"
      },
      "performUpkeep(bytes)": {
        "notice": "Once checkUpkeep() returns \"true\" this function is called to execute licenseStatusUpdater() functionIt iterates thru all tokenId's and borrowers per those tokens to remove all licenses that have expired"
      },
      "revokeCertificate(uint256)": {
        "notice": "Allows contract owner to revoke token with copyrights plagiarism"
      },
      "tokenURI(uint256)": {
        "notice": "URI to query to get the certificate's metadata"
      },
      "withdrawProceeds()": {
        "notice": "Allows lenders to withdraw their proceeds"
      }
    },
    "version": 1
  },
  "storageLayout": {
    "storage": [
      {
        "astId": 4010,
        "contract": "contracts/DigitalRightsMaykr.sol:DigitalRightsMaykr",
        "label": "_tokens",
        "offset": 0,
        "slot": "0",
        "type": "t_mapping(t_uint256,t_struct(Token)4005_storage)"
      },
      {
        "astId": 4015,
        "contract": "contracts/DigitalRightsMaykr.sol:DigitalRightsMaykr",
        "label": "_indexedTokenIds",
        "offset": 0,
        "slot": "1",
        "type": "t_mapping(t_address,t_array(t_uint256)dyn_storage)"
      },
      {
        "astId": 4021,
        "contract": "contracts/DigitalRightsMaykr.sol:DigitalRightsMaykr",
        "label": "_tokenIdIndex",
        "offset": 0,
        "slot": "2",
        "type": "t_mapping(t_address,t_mapping(t_uint256,t_uint256))"
      },
      {
        "astId": 4025,
        "contract": "contracts/DigitalRightsMaykr.sol:DigitalRightsMaykr",
        "label": "_numberOfValidTokens",
        "offset": 0,
        "slot": "3",
        "type": "t_mapping(t_address,t_uint256)"
      },
      {
        "astId": 4027,
        "contract": "contracts/DigitalRightsMaykr.sol:DigitalRightsMaykr",
        "label": "_name",
        "offset": 0,
        "slot": "4",
        "type": "t_string_storage"
      },
      {
        "astId": 4029,
        "contract": "contracts/DigitalRightsMaykr.sol:DigitalRightsMaykr",
        "label": "_symbol",
        "offset": 0,
        "slot": "5",
        "type": "t_string_storage"
      },
      {
        "astId": 4031,
        "contract": "contracts/DigitalRightsMaykr.sol:DigitalRightsMaykr",
        "label": "_emittedCount",
        "offset": 0,
        "slot": "6",
        "type": "t_uint256"
      },
      {
        "astId": 4033,
        "contract": "contracts/DigitalRightsMaykr.sol:DigitalRightsMaykr",
        "label": "_holdersCount",
        "offset": 0,
        "slot": "7",
        "type": "t_uint256"
      },
      {
        "astId": 4035,
        "contract": "contracts/DigitalRightsMaykr.sol:DigitalRightsMaykr",
        "label": "_creator",
        "offset": 0,
        "slot": "8",
        "type": "t_address"
      },
      {
        "astId": 26,
        "contract": "contracts/DigitalRightsMaykr.sol:DigitalRightsMaykr",
        "label": "_owner",
        "offset": 0,
        "slot": "9",
        "type": "t_address"
      },
      {
        "astId": 142,
        "contract": "contracts/DigitalRightsMaykr.sol:DigitalRightsMaykr",
        "label": "_status",
        "offset": 0,
        "slot": "10",
        "type": "t_uint256"
      },
      {
        "astId": 2834,
        "contract": "contracts/DigitalRightsMaykr.sol:DigitalRightsMaykr",
        "label": "s_lastTimeStamp",
        "offset": 0,
        "slot": "11",
        "type": "t_uint256"
      },
      {
        "astId": 2862,
        "contract": "contracts/DigitalRightsMaykr.sol:DigitalRightsMaykr",
        "label": "s_certs",
        "offset": 0,
        "slot": "12",
        "type": "t_mapping(t_uint256,t_struct(Certificate)2856_storage)"
      },
      {
        "astId": 2866,
        "contract": "contracts/DigitalRightsMaykr.sol:DigitalRightsMaykr",
        "label": "s_proceeds",
        "offset": 0,
        "slot": "13",
        "type": "t_mapping(t_address,t_uint256)"
      }
    ],
    "types": {
      "t_address": {
        "encoding": "inplace",
        "label": "address",
        "numberOfBytes": "20"
      },
      "t_array(t_address)dyn_storage": {
        "base": "t_address",
        "encoding": "dynamic_array",
        "label": "address[]",
        "numberOfBytes": "32"
      },
      "t_array(t_uint256)dyn_storage": {
        "base": "t_uint256",
        "encoding": "dynamic_array",
        "label": "uint256[]",
        "numberOfBytes": "32"
      },
      "t_bool": {
        "encoding": "inplace",
        "label": "bool",
        "numberOfBytes": "1"
      },
      "t_mapping(t_address,t_array(t_uint256)dyn_storage)": {
        "encoding": "mapping",
        "key": "t_address",
        "label": "mapping(address => uint256[])",
        "numberOfBytes": "32",
        "value": "t_array(t_uint256)dyn_storage"
      },
      "t_mapping(t_address,t_bool)": {
        "encoding": "mapping",
        "key": "t_address",
        "label": "mapping(address => bool)",
        "numberOfBytes": "32",
        "value": "t_bool"
      },
      "t_mapping(t_address,t_mapping(t_uint256,t_uint256))": {
        "encoding": "mapping",
        "key": "t_address",
        "label": "mapping(address => mapping(uint256 => uint256))",
        "numberOfBytes": "32",
        "value": "t_mapping(t_uint256,t_uint256)"
      },
      "t_mapping(t_address,t_string_storage)": {
        "encoding": "mapping",
        "key": "t_address",
        "label": "mapping(address => string)",
        "numberOfBytes": "32",
        "value": "t_string_storage"
      },
      "t_mapping(t_address,t_uint256)": {
        "encoding": "mapping",
        "key": "t_address",
        "label": "mapping(address => uint256)",
        "numberOfBytes": "32",
        "value": "t_uint256"
      },
      "t_mapping(t_uint256,t_struct(Certificate)2856_storage)": {
        "encoding": "mapping",
        "key": "t_uint256",
        "label": "mapping(uint256 => struct DigitalRightsMaykr.Certificate)",
        "numberOfBytes": "32",
        "value": "t_struct(Certificate)2856_storage"
      },
      "t_mapping(t_uint256,t_struct(Token)4005_storage)": {
        "encoding": "mapping",
        "key": "t_uint256",
        "label": "mapping(uint256 => struct ERC4671.Token)",
        "numberOfBytes": "32",
        "value": "t_struct(Token)4005_storage"
      },
      "t_mapping(t_uint256,t_uint256)": {
        "encoding": "mapping",
        "key": "t_uint256",
        "label": "mapping(uint256 => uint256)",
        "numberOfBytes": "32",
        "value": "t_uint256"
      },
      "t_string_storage": {
        "encoding": "bytes",
        "label": "string",
        "numberOfBytes": "32"
      },
      "t_struct(Certificate)2856_storage": {
        "encoding": "inplace",
        "label": "struct DigitalRightsMaykr.Certificate",
        "members": [
          {
            "astId": 2836,
            "contract": "contracts/DigitalRightsMaykr.sol:DigitalRightsMaykr",
            "label": "tokenIdToURI",
            "offset": 0,
            "slot": "0",
            "type": "t_string_storage"
          },
          {
            "astId": 2838,
            "contract": "contracts/DigitalRightsMaykr.sol:DigitalRightsMaykr",
            "label": "tokenIdToPrice",
            "offset": 0,
            "slot": "1",
            "type": "t_uint256"
          },
          {
            "astId": 2840,
            "contract": "contracts/DigitalRightsMaykr.sol:DigitalRightsMaykr",
            "label": "tokenIdToBorrowable",
            "offset": 0,
            "slot": "2",
            "type": "t_bool"
          },
          {
            "astId": 2843,
            "contract": "contracts/DigitalRightsMaykr.sol:DigitalRightsMaykr",
            "label": "tokenIdToBorrowers",
            "offset": 0,
            "slot": "3",
            "type": "t_array(t_address)dyn_storage"
          },
          {
            "astId": 2847,
            "contract": "contracts/DigitalRightsMaykr.sol:DigitalRightsMaykr",
            "label": "tokenIdToBorrowToEnd",
            "offset": 0,
            "slot": "4",
            "type": "t_mapping(t_address,t_uint256)"
          },
          {
            "astId": 2851,
            "contract": "contracts/DigitalRightsMaykr.sol:DigitalRightsMaykr",
            "label": "tokenIdToBorrowerToClause",
            "offset": 0,
            "slot": "5",
            "type": "t_mapping(t_address,t_string_storage)"
          },
          {
            "astId": 2855,
            "contract": "contracts/DigitalRightsMaykr.sol:DigitalRightsMaykr",
            "label": "tokenIdToBorrowerToValidity",
            "offset": 0,
            "slot": "6",
            "type": "t_mapping(t_address,t_bool)"
          }
        ],
        "numberOfBytes": "224"
      },
      "t_struct(Token)4005_storage": {
        "encoding": "inplace",
        "label": "struct ERC4671.Token",
        "members": [
          {
            "astId": 4000,
            "contract": "contracts/DigitalRightsMaykr.sol:DigitalRightsMaykr",
            "label": "issuer",
            "offset": 0,
            "slot": "0",
            "type": "t_address"
          },
          {
            "astId": 4002,
            "contract": "contracts/DigitalRightsMaykr.sol:DigitalRightsMaykr",
            "label": "owner",
            "offset": 0,
            "slot": "1",
            "type": "t_address"
          },
          {
            "astId": 4004,
            "contract": "contracts/DigitalRightsMaykr.sol:DigitalRightsMaykr",
            "label": "valid",
            "offset": 20,
            "slot": "1",
            "type": "t_bool"
          }
        ],
        "numberOfBytes": "64"
      },
      "t_uint256": {
        "encoding": "inplace",
        "label": "uint256",
        "numberOfBytes": "32"
      }
    }
  }
}