{
  "address": "0xC28f682d15477239ed2ece9c120CCAA0886654Be",
  "abi": [
    {
      "inputs": [
        {
          "internalType": "uint256",
          "name": "interval",
          "type": "uint256"
        }
      ],
      "stateMutability": "nonpayable",
      "type": "constructor"
    },
    {
      "inputs": [],
      "name": "DRM__AddressHasRightsAlready",
      "type": "error"
    },
    {
      "inputs": [],
      "name": "DRM__LicenseDoesNotExistsForThisUser",
      "type": "error"
    },
    {
      "inputs": [],
      "name": "DRM__LicenseNotExpiredYetForThisUser",
      "type": "error"
    },
    {
      "inputs": [],
      "name": "DRM__NotEnoughETH",
      "type": "error"
    },
    {
      "inputs": [],
      "name": "DRM__NotTokenOwner",
      "type": "error"
    },
    {
      "inputs": [],
      "name": "DRM__NothingToWithdraw",
      "type": "error"
    },
    {
      "inputs": [],
      "name": "DRM__TokenAlreadyAllowed",
      "type": "error"
    },
    {
      "inputs": [],
      "name": "DRM__TokenAlreadyBlocked",
      "type": "error"
    },
    {
      "inputs": [],
      "name": "DRM__TokenNotBorrowable",
      "type": "error"
    },
    {
      "inputs": [],
      "name": "DRM__TokenNotValid",
      "type": "error"
    },
    {
      "inputs": [],
      "name": "DRM__TransferFailed",
      "type": "error"
    },
    {
      "inputs": [],
      "name": "DRM__UpkeepNotNeeded",
      "type": "error"
    },
    {
      "anonymous": false,
      "inputs": [
        {
          "indexed": true,
          "internalType": "address",
          "name": "owner",
          "type": "address"
        },
        {
          "indexed": true,
          "internalType": "address",
          "name": "borrower",
          "type": "address"
        },
        {
          "indexed": false,
          "internalType": "string",
          "name": "statement",
          "type": "string"
        },
        {
          "indexed": false,
          "internalType": "string",
          "name": "expiration",
          "type": "string"
        },
        {
          "indexed": true,
          "internalType": "uint256",
          "name": "id",
          "type": "uint256"
        }
      ],
      "name": "ClauseCreated",
      "type": "event"
    },
    {
      "anonymous": false,
      "inputs": [
        {
          "indexed": true,
          "internalType": "bool",
          "name": "performed",
          "type": "bool"
        }
      ],
      "name": "ExpiredLicensesRemoved",
      "type": "event"
    },
    {
      "anonymous": false,
      "inputs": [
        {
          "indexed": true,
          "internalType": "uint256",
          "name": "price",
          "type": "uint256"
        },
        {
          "indexed": true,
          "internalType": "uint256",
          "name": "lendingTime",
          "type": "uint256"
        },
        {
          "indexed": true,
          "internalType": "uint256",
          "name": "id",
          "type": "uint256"
        }
      ],
      "name": "LendingAllowed",
      "type": "event"
    },
    {
      "anonymous": false,
      "inputs": [
        {
          "indexed": true,
          "internalType": "uint256",
          "name": "id",
          "type": "uint256"
        }
      ],
      "name": "LendingBlocked",
      "type": "event"
    },
    {
      "anonymous": false,
      "inputs": [
        {
          "indexed": true,
          "internalType": "uint256",
          "name": "end",
          "type": "uint256"
        },
        {
          "indexed": false,
          "internalType": "bool",
          "name": "validity",
          "type": "bool"
        },
        {
          "indexed": true,
          "internalType": "uint256",
          "name": "id",
          "type": "uint256"
        }
      ],
      "name": "LendingLicenseCreated",
      "type": "event"
    },
    {
      "anonymous": false,
      "inputs": [
        {
          "indexed": true,
          "internalType": "address",
          "name": "borrower",
          "type": "address"
        },
        {
          "indexed": true,
          "internalType": "uint256",
          "name": "id",
          "type": "uint256"
        }
      ],
      "name": "LicenseRemoved",
      "type": "event"
    },
    {
      "anonymous": false,
      "inputs": [
        {
          "indexed": false,
          "internalType": "address",
          "name": "owner",
          "type": "address"
        },
        {
          "indexed": false,
          "internalType": "uint256",
          "name": "tokenId",
          "type": "uint256"
        }
      ],
      "name": "Minted",
      "type": "event"
    },
    {
      "anonymous": false,
      "inputs": [
        {
          "indexed": true,
          "internalType": "address",
          "name": "previousOwner",
          "type": "address"
        },
        {
          "indexed": true,
          "internalType": "address",
          "name": "newOwner",
          "type": "address"
        }
      ],
      "name": "OwnershipTransferred",
      "type": "event"
    },
    {
      "anonymous": false,
      "inputs": [
        {
          "indexed": true,
          "internalType": "uint256",
          "name": "amount",
          "type": "uint256"
        },
        {
          "indexed": true,
          "internalType": "address",
          "name": "lender",
          "type": "address"
        },
        {
          "indexed": true,
          "internalType": "bool",
          "name": "transfer",
          "type": "bool"
        }
      ],
      "name": "ProceedsWithdrawal",
      "type": "event"
    },
    {
      "anonymous": false,
      "inputs": [
        {
          "indexed": false,
          "internalType": "address",
          "name": "owner",
          "type": "address"
        },
        {
          "indexed": false,
          "internalType": "uint256",
          "name": "tokenId",
          "type": "uint256"
        }
      ],
      "name": "Revoked",
      "type": "event"
    },
    {
      "anonymous": false,
      "inputs": [
        {
          "indexed": false,
          "internalType": "string",
          "name": "uri",
          "type": "string"
        },
        {
          "indexed": true,
          "internalType": "uint256",
          "name": "id",
          "type": "uint256"
        }
      ],
      "name": "TokenUriSet",
      "type": "event"
    },
    {
      "inputs": [
        {
          "internalType": "uint256",
          "name": "tokenId",
          "type": "uint256"
        },
        {
          "internalType": "uint256",
          "name": "lendingTime",
          "type": "uint256"
        },
        {
          "internalType": "uint256",
          "name": "price",
          "type": "uint256"
        }
      ],
      "name": "allowLending",
      "outputs": [],
      "stateMutability": "nonpayable",
      "type": "function"
    },
    {
      "inputs": [
        {
          "internalType": "address",
          "name": "owner",
          "type": "address"
        }
      ],
      "name": "balanceOf",
      "outputs": [
        {
          "internalType": "uint256",
          "name": "",
          "type": "uint256"
        }
      ],
      "stateMutability": "view",
      "type": "function"
    },
    {
      "inputs": [
        {
          "internalType": "uint256",
          "name": "tokenId",
          "type": "uint256"
        }
      ],
      "name": "blockLending",
      "outputs": [],
      "stateMutability": "nonpayable",
      "type": "function"
    },
    {
      "inputs": [
        {
          "internalType": "uint256",
          "name": "tokenId",
          "type": "uint256"
        },
        {
          "internalType": "address",
          "name": "borrower",
          "type": "address"
        }
      ],
      "name": "buyLicense",
      "outputs": [],
      "stateMutability": "payable",
      "type": "function"
    },
    {
      "inputs": [
        {
          "internalType": "bytes",
          "name": "",
          "type": "bytes"
        }
      ],
      "name": "checkUpkeep",
      "outputs": [
        {
          "internalType": "bool",
          "name": "upkeepNeeded",
          "type": "bool"
        },
        {
          "internalType": "bytes",
          "name": "",
          "type": "bytes"
        }
      ],
      "stateMutability": "view",
      "type": "function"
    },
    {
      "inputs": [],
      "name": "emittedCount",
      "outputs": [
        {
          "internalType": "uint256",
          "name": "",
          "type": "uint256"
        }
      ],
      "stateMutability": "view",
      "type": "function"
    },
    {
      "inputs": [
        {
          "internalType": "uint256",
          "name": "tokenId",
          "type": "uint256"
        }
      ],
      "name": "getCertificatePrice",
      "outputs": [
        {
          "internalType": "uint256",
          "name": "",
          "type": "uint256"
        }
      ],
      "stateMutability": "view",
      "type": "function"
    },
    {
      "inputs": [
        {
          "internalType": "uint256",
          "name": "tokenId",
          "type": "uint256"
        }
      ],
      "name": "getCertsBorrowers",
      "outputs": [
        {
          "internalType": "address[]",
          "name": "",
          "type": "address[]"
        }
      ],
      "stateMutability": "view",
      "type": "function"
    },
    {
      "inputs": [
        {
          "internalType": "uint256",
          "name": "tokenId",
          "type": "uint256"
        },
        {
          "internalType": "address",
          "name": "borrower",
          "type": "address"
        }
      ],
      "name": "getClause",
      "outputs": [
        {
          "internalType": "string",
          "name": "",
          "type": "string"
        }
      ],
      "stateMutability": "view",
      "type": "function"
    },
    {
      "inputs": [
        {
          "internalType": "uint256",
          "name": "tokenId",
          "type": "uint256"
        },
        {
          "internalType": "address",
          "name": "borrower",
          "type": "address"
        }
      ],
      "name": "getExpirationTime",
      "outputs": [
        {
          "internalType": "uint256",
          "name": "",
          "type": "uint256"
        }
      ],
      "stateMutability": "view",
      "type": "function"
    },
    {
      "inputs": [
        {
          "internalType": "uint256",
          "name": "tokenId",
          "type": "uint256"
        }
      ],
      "name": "getLendingPeriod",
      "outputs": [
        {
          "internalType": "uint256",
          "name": "",
          "type": "uint256"
        }
      ],
      "stateMutability": "view",
      "type": "function"
    },
    {
      "inputs": [
        {
          "internalType": "uint256",
          "name": "tokenId",
          "type": "uint256"
        }
      ],
      "name": "getLendingStatus",
      "outputs": [
        {
          "internalType": "bool",
          "name": "",
          "type": "bool"
        }
      ],
      "stateMutability": "view",
      "type": "function"
    },
    {
      "inputs": [
        {
          "internalType": "uint256",
          "name": "tokenId",
          "type": "uint256"
        },
        {
          "internalType": "address",
          "name": "borrower",
          "type": "address"
        }
      ],
      "name": "getLicenseValidity",
      "outputs": [
        {
          "internalType": "bool",
          "name": "",
          "type": "bool"
        }
      ],
      "stateMutability": "view",
      "type": "function"
    },
    {
      "inputs": [
        {
          "internalType": "address",
          "name": "lender",
          "type": "address"
        }
      ],
      "name": "getProceeds",
      "outputs": [
        {
          "internalType": "uint256",
          "name": "",
          "type": "uint256"
        }
      ],
      "stateMutability": "view",
      "type": "function"
    },
    {
      "inputs": [
        {
          "internalType": "address",
          "name": "owner",
          "type": "address"
        }
      ],
      "name": "hasValid",
      "outputs": [
        {
          "internalType": "bool",
          "name": "",
          "type": "bool"
        }
      ],
      "stateMutability": "view",
      "type": "function"
    },
    {
      "inputs": [],
      "name": "holdersCount",
      "outputs": [
        {
          "internalType": "uint256",
          "name": "",
          "type": "uint256"
        }
      ],
      "stateMutability": "view",
      "type": "function"
    },
    {
      "inputs": [
        {
          "internalType": "uint256",
          "name": "tokenId",
          "type": "uint256"
        }
      ],
      "name": "isValid",
      "outputs": [
        {
          "internalType": "bool",
          "name": "",
          "type": "bool"
        }
      ],
      "stateMutability": "view",
      "type": "function"
    },
    {
      "inputs": [
        {
          "internalType": "string",
          "name": "createdTokenURI",
          "type": "string"
        }
      ],
      "name": "mintNFT",
      "outputs": [],
      "stateMutability": "nonpayable",
      "type": "function"
    },
    {
      "inputs": [],
      "name": "name",
      "outputs": [
        {
          "internalType": "string",
          "name": "",
          "type": "string"
        }
      ],
      "stateMutability": "view",
      "type": "function"
    },
    {
      "inputs": [],
      "name": "owner",
      "outputs": [
        {
          "internalType": "address",
          "name": "",
          "type": "address"
        }
      ],
      "stateMutability": "view",
      "type": "function"
    },
    {
      "inputs": [
        {
          "internalType": "uint256",
          "name": "tokenId",
          "type": "uint256"
        }
      ],
      "name": "ownerOf",
      "outputs": [
        {
          "internalType": "address",
          "name": "",
          "type": "address"
        }
      ],
      "stateMutability": "view",
      "type": "function"
    },
    {
      "inputs": [
        {
          "internalType": "bytes",
          "name": "",
          "type": "bytes"
        }
      ],
      "name": "performUpkeep",
      "outputs": [],
      "stateMutability": "nonpayable",
      "type": "function"
    },
    {
      "inputs": [],
      "name": "renounceOwnership",
      "outputs": [],
      "stateMutability": "nonpayable",
      "type": "function"
    },
    {
      "inputs": [
        {
          "internalType": "uint256",
          "name": "tokenId",
          "type": "uint256"
        }
      ],
      "name": "revokeCertificate",
      "outputs": [],
      "stateMutability": "nonpayable",
      "type": "function"
    },
    {
      "inputs": [
        {
          "internalType": "bytes4",
          "name": "interfaceId",
          "type": "bytes4"
        }
      ],
      "name": "supportsInterface",
      "outputs": [
        {
          "internalType": "bool",
          "name": "",
          "type": "bool"
        }
      ],
      "stateMutability": "view",
      "type": "function"
    },
    {
      "inputs": [],
      "name": "symbol",
      "outputs": [
        {
          "internalType": "string",
          "name": "",
          "type": "string"
        }
      ],
      "stateMutability": "view",
      "type": "function"
    },
    {
      "inputs": [
        {
          "internalType": "uint256",
          "name": "tokenId",
          "type": "uint256"
        }
      ],
      "name": "tokenURI",
      "outputs": [
        {
          "internalType": "string",
          "name": "",
          "type": "string"
        }
      ],
      "stateMutability": "view",
      "type": "function"
    },
    {
      "inputs": [
        {
          "internalType": "address",
          "name": "newOwner",
          "type": "address"
        }
      ],
      "name": "transferOwnership",
      "outputs": [],
      "stateMutability": "nonpayable",
      "type": "function"
    },
    {
      "inputs": [],
      "name": "withdrawProceeds",
      "outputs": [],
      "stateMutability": "payable",
      "type": "function"
    }
  ],
  "transactionHash": "0x52a48308d6b3303e1cb4f616a792adc9f20ab4a6c133bf815579e2c0c2bdff57",
  "args": [
    "30"
  ],
  "numDeployments": 6,
  "solcInputHash": "811725ed0509db85e4bd06a2f53addf0",
  "bytecode": "0x60a06040523480156200001157600080fd5b5060405162002a0d38038062002a0d833981016040819052620000349162000131565b6040518060400160405280601481526020017f4469676974616c20526967687473204d61796b720000000000000000000000008152506040518060400160405280600381526020016244524d60e81b8152508160049081620000979190620001f0565b506005620000a68282620001f0565b5050600880546001600160a01b0319163317905550620000cd620000c73390565b620000df565b6001600a5560805242600b55620002bc565b600980546001600160a01b038381166001600160a01b0319831681179093556040519116919082907f8be0079c531659141344cd1fd0a4f28419497f9722a3daafe3b4186f6b6457e090600090a35050565b6000602082840312156200014457600080fd5b5051919050565b634e487b7160e01b600052604160045260246000fd5b600181811c908216806200017657607f821691505b6020821081036200019757634e487b7160e01b600052602260045260246000fd5b50919050565b601f821115620001eb57600081815260208120601f850160051c81016020861015620001c65750805b601f850160051c820191505b81811015620001e757828155600101620001d2565b5050505b505050565b81516001600160401b038111156200020c576200020c6200014b565b62000224816200021d845462000161565b846200019d565b602080601f8311600181146200025c5760008415620002435750858301515b600019600386901b1c1916600185901b178555620001e7565b600085815260208120601f198616915b828110156200028d578886015182559484019460019091019084016200026c565b5085821015620002ac5787850151600019600388901b60f8161c191681555b5050505050600190811b01905550565b608051612735620002d86000396000610abb01526127356000f3fe6080604052600436106101c25760003560e01c80636e04ff0d116100f7578063b0739e9c11610095578063f2fde38b11610064578063f2fde38b14610578578063f577a50014610598578063f7ef774b146105b8578063fb37e883146105eb57600080fd5b8063b0739e9c146104f8578063c87b56dd14610518578063d4ccde5614610538578063f27799701461055857600080fd5b80638da5cb5b116100d15780638da5cb5b146104aa5780639038e693146104c857806395d89b41146104d0578063996cb745146104e557600080fd5b80636e04ff0d1461043157806370a082311461045f578063715018a61461049557600080fd5b8063312bd13f116101645780634bbba3711161013e5780634bbba3711461036a5780635f9c72aa1461039a5780636352211e146103e45780636b4ed21b1461041c57600080fd5b8063312bd13f146102e257806343945512146103125780634585e33b1461034a57600080fd5b806316011e63116101a057806316011e63146102405780631f33fd631461026d57806326019c181461028d57806330cfeda9146102ac57600080fd5b806301ffc9a7146101c757806306f5497e146101fc57806306fdde031461021e575b600080fd5b3480156101d357600080fd5b506101e76101e2366004611f44565b61060b565b60405190151581526020015b60405180910390f35b34801561020857600080fd5b5061021c610217366004611f6e565b610678565b005b34801561022a57600080fd5b5061023361068c565b6040516101f39190611fd7565b34801561024c57600080fd5b5061026061025b366004611f6e565b61071e565b6040516101f39190611fea565b34801561027957600080fd5b5061021c610288366004611f6e565b610790565b34801561029957600080fd5b506006545b6040519081526020016101f3565b3480156102b857600080fd5b5061029e6102c7366004612053565b6001600160a01b03166000908152600d602052604090205490565b3480156102ee57600080fd5b5061029e6102fd366004611f6e565b6000908152600c602052604090206001015490565b34801561031e57600080fd5b506101e761032d366004612053565b6001600160a01b0316600090815260036020526040902054151590565b34801561035657600080fd5b5061021c61036536600461206e565b61083c565b34801561037657600080fd5b5061029e610385366004611f6e565b6000908152600c602052604090206002015490565b3480156103a657600080fd5b506101e76103b53660046120e0565b6000828152600c602090815260408083206001600160a01b038516845260070190915290205460ff1692915050565b3480156103f057600080fd5b506104046103ff366004611f6e565b610a41565b6040516001600160a01b0390911681526020016101f3565b34801561042857600080fd5b5060075461029e565b34801561043d57600080fd5b5061045161044c366004612198565b610a5f565b6040516101f39291906121e1565b34801561046b57600080fd5b5061029e61047a366004612053565b6001600160a01b031660009081526001602052604090205490565b3480156104a157600080fd5b5061021c610c5c565b3480156104b657600080fd5b506009546001600160a01b0316610404565b61021c610c70565b3480156104dc57600080fd5b50610233610d75565b61021c6104f33660046120e0565b610d84565b34801561050457600080fd5b5061029e6105133660046120e0565b610fe2565b34801561052457600080fd5b50610233610533366004611f6e565b611045565b34801561054457600080fd5b5061021c6105533660046121fc565b6110e8565b34801561056457600080fd5b506102336105733660046120e0565b6111e9565b34801561058457600080fd5b5061021c610593366004612053565b6112a7565b3480156105a457600080fd5b506101e76105b3366004611f6e565b611322565b3480156105c457600080fd5b506101e76105d3366004611f6e565b6000908152600c602052604090206003015460ff1690565b3480156105f757600080fd5b5061021c610606366004612198565b611341565b60006001600160e01b0319821663a511533d60e01b148061063c57506001600160e01b03198216635b5e139f60e01b145b8061065757506001600160e01b03198216634d4f4e0360e01b145b8061067257506301ffc9a760e01b6001600160e01b03198316145b92915050565b6106806113b3565b6106898161140d565b50565b60606004805461069b90612228565b80601f01602080910402602001604051908101604052809291908181526020018280546106c790612228565b80156107145780601f106106e957610100808354040283529160200191610714565b820191906000526020600020905b8154815290600101906020018083116106f757829003601f168201915b5050505050905090565b6000818152600c6020908152604091829020600481018054845181850281018501909552808552606094929383018282801561078357602002820191906000526020600020905b81546001600160a01b03168152600190910190602001808311610765575b5050505050915050919050565b61079981611529565b506000818152600c60205260409020336107b283610a41565b6001600160a01b0316146107d9576040516382e537b360e01b815260040160405180910390fd5b600381015460ff1615156000036108035760405163a18127fb60e01b815260040160405180910390fd5b60405182907fc7b716ed0a741b36dcb658966bd6712610c1355f85ad1b6822bda21d12dea7db90600090a2600301805460ff1916905550565b600061085660405180602001604052806000815250610a5f565b5090508061087757604051634fbf204960e01b815260040160405180910390fd5b600061088260065490565b67ffffffffffffffff81111561089a5761089a61210c565b6040519080825280602002602001820160405280156108c3578160200160208202803683370190505b50905060005b600654811015610a0e576000818152600c60205260409020600481015483518490849081106108fa576108fa612262565b6020908102919091010152600381015460ff16151560011480156109375750600083838151811061092d5761092d612262565b6020026020010151115b156109fb576000600184848151811061095257610952612262565b6020026020010151610964919061228e565b90505b4282600501600084600401848154811061098357610983612262565b60009182526020808320909101546001600160a01b0316835282019290925260400190205410156109e1576109e1838360040183815481106109c7576109c7612262565b6000918252602090912001546001600160a01b0316611588565b80156109f957806109f1816122a1565b915050610967565b505b5080610a06816122b8565b9150506108c9565b506040516001907f83a47186345bb0297912a376a26e9563bbab6eea5eb47e6f0c4b99a2584d3d9590600090a250505050565b6000610a4c82611529565b600101546001600160a01b031692915050565b600060606000610a6e60065490565b905060008167ffffffffffffffff811115610a8b57610a8b61210c565b604051908082528060200260200182016040528015610ab4578160200160208202803683370190505b50905060007f0000000000000000000000000000000000000000000000000000000000000000600b5442610ae8919061228e565b11905082151560008080805b87811015610c0b576000818152600c6020526040902060048101548851899084908110610b2357610b23612262565b6020908102919091010152600381015460ff161515600103610b4457600194505b600481015415610b5357600193505b60005b888381518110610b6857610b68612262565b6020026020010151811015610bd95742826005016000846004018481548110610b9357610b93612262565b60009182526020808320909101546001600160a01b031683528201929092526040019020541015610bc75760019350610bd9565b80610bd1816122b8565b915050610b56565b50848015610be45750835b8015610bed5750825b15610bf85750610c0b565b5080610c03816122b8565b915050610af4565b50848015610c165750835b8015610c1f5750825b8015610c285750815b8015610c315750805b60408051808201909152600381526203078360ec1b6020820152909b909a5098505050505050505050565b610c646113b3565b610c6e600061179d565b565b610c786117ef565b336000908152600d60205260409020548015610ca357336000908152600d6020526040812055610cbc565b604051631a497d3160e21b815260040160405180910390fd5b604051600090339083908381818185875af1925050503d8060008114610cfe576040519150601f19603f3d011682016040523d82523d6000602084013e610d03565b606091505b5050905080610d3857336000908152600d602052604090819020839055805163ec1e1cc360e01b815290519081900360040190fd5b60405181151590339084907fcdeaa56b4f47bc9f929a0a8ef4a441c85f6b3fcf27836b68ee42d67e96ff758990600090a45050610c6e6001600a55565b60606005805461069b90612228565b610d8c6117ef565b6000828152600c602052604090206001600160a01b038216610dad84610a41565b6001600160a01b03161480610ddc57506001600160a01b038216600090815260078201602052604090205460ff165b15610dfa576040516306520b2f60e31b815260040160405180910390fd5b610e0383611322565b1515600003610e2557604051632cb1fb6760e01b815260040160405180910390fd5b600381015460ff16610e4a576040516340496f5760e11b815260040160405180910390fd5b3481600201541115610e6f57604051638e5892e960e01b815260040160405180910390fd5b6000838152600c6020526040812060010154600483018054600181018255600091825260209091200180546001600160a01b0319166001600160a01b0386161790559050610ebd81426122d1565b6001600160a01b0384166000908152600584016020526040902055610ee3848285611848565b6001600160a01b0384166000908152600684016020526040902090610f089082612332565b506001600160a01b03831660009081526007830160205260408120805460ff191660011790553490600d90610f3c87610a41565b6001600160a01b03166001600160a01b031681526020019081526020016000206000828254610f6b91906122d1565b90915550506001600160a01b03831660009081526005830160209081526040808320546007860183529281902054905160ff909116151581528692917fc1a4e46d68be810b14940f2a64e17f1dc4ba49ff9772f297b1fb608df190d970910160405180910390a35050610fde6001600a55565b5050565b6000828152600c602090815260408083206001600160a01b038516845260058101909252822054421161103a576001600160a01b038316600090815260058201602052604090205461103590429061228e565b61103d565b60005b949350505050565b606061105082611529565b506000828152600c602052604090208054819061106c90612228565b80601f016020809104026020016040519081016040528092919081815260200182805461109890612228565b80156107835780601f106110ba57610100808354040283529160200191610783565b820191906000526020600020905b8154815290600101906020018083116110c8575093979650505050505050565b6110f183611529565b506110fb83611322565b151560000361111d57604051632cb1fb6760e01b815260040160405180910390fd5b6000838152600c602052604090203361113585610a41565b6001600160a01b03161461115c576040516382e537b360e01b815260040160405180910390fd5b600381015460ff161515600103611186576040516310a307d160e11b815260040160405180910390fd5b6001600061119485836123f2565b90508581857fa41c5f4875504c9fb40a5ee9d6fd6401c7ef3ef756ce67d10cc0409b38432fd960405160405180910390a4600283019390935550600180820192909255600301805460ff191690911790555050565b6000828152600c602090815260408083206001600160a01b0385168452600681019092529091208054606092919061122090612228565b80601f016020809104026020016040519081016040528092919081815260200182805461124c90612228565b80156112995780601f1061126e57610100808354040283529160200191611299565b820191906000526020600020905b81548152906001019060200180831161127c57829003601f168201915b505050505091505092915050565b6112af6113b3565b6001600160a01b0381166113195760405162461bcd60e51b815260206004820152602660248201527f4f776e61626c653a206e6577206f776e657220697320746865207a65726f206160448201526564647265737360d01b60648201526084015b60405180910390fd5b6106898161179d565b600061132d82611529565b60010154600160a01b900460ff1692915050565b600061134c60065490565b6000818152600c602052604090209091506113663361198f565b50806113728482612332565b50817fbda0610fb2d79eb4738c314b0a0b29d8ddb357941fc92faefd4cbb40b6c122a5826000016040516113a69190612409565b60405180910390a2505050565b6009546001600160a01b03163314610c6e5760405162461bcd60e51b815260206004820181905260248201527f4f776e61626c653a2063616c6c6572206973206e6f7420746865206f776e65726044820152606401611310565b600061141882611529565b6001810154909150600160a01b900460ff166114765760405162461bcd60e51b815260206004820152601860248201527f546f6b656e20697320616c726561647920696e76616c696400000000000000006044820152606401611310565b60018101805460ff60a01b1981169091556001600160a01b03166000908152600360205260409020546114ab576114ab612494565b6001818101546001600160a01b0316600090815260036020526040812080549091906114d890849061228e565b90915550506001810154604080516001600160a01b039092168252602082018490527f713b90881ad62c4fa8ab6bd9197fa86481fc0c11b2edba60026514281b2dbac4910160405180910390a15050565b600081815260208190526040812060018101546001600160a01b03166106725760405162461bcd60e51b8152602060048201526014602482015273151bdad95b88191bd95cc81b9bdd08195e1a5cdd60621b6044820152606401611310565b818161159382611529565b506000828152600c602090815260408083206001600160a01b0385168452600581019092528220549091036115db57604051634ef1bde160e11b815260040160405180910390fd5b6001600160a01b038216600090815260058201602052604090205442101561161657604051634e72f2bb60e11b815260040160405180910390fd5b61161f85611529565b506000858152600c60205260408120905b600482015481101561177157856001600160a01b031682600401828154811061165b5761165b612262565b6000918252602090912001546001600160a01b03160361175f5760405187906001600160a01b038816907fc73ad78a77cee4f2edf86fb7902dddaee64a464222980ab9ee98497cdf6d1e7890600090a36004820180546116bd9060019061228e565b815481106116cd576116cd612262565b6000918252602090912001546004830180546001600160a01b0390921691839081106116fb576116fb612262565b9060005260206000200160006101000a8154816001600160a01b0302191690836001600160a01b031602179055508160040180548061173c5761173c6124aa565b600082815260209020810160001990810180546001600160a01b03191690550190555b80611769816122b8565b915050611630565b506001600160a01b039094166000908152600790940160205250506040909120805460ff191690555050565b600980546001600160a01b038381166001600160a01b0319831681179093556040519116919082907f8be0079c531659141344cd1fd0a4f28419497f9722a3daafe3b4186f6b6457e090600090a35050565b6002600a54036118415760405162461bcd60e51b815260206004820152601f60248201527f5265656e7472616e637947756172643a207265656e7472616e742063616c6c006044820152606401611310565b6002600a55565b6060600061185684426122d1565b90506000806000611866846119fe565b925092509250600061188a61187a8a610a41565b6001600160a01b03166014611a1d565b905060006118a2886001600160a01b03166014611a1d565b905060006118af8b611bc0565b905060006118bc87611bc0565b905060006118c987611bc0565b905060006118d687611bc0565b905060008686868486886040516020016118f5969594939291906124dc565b6040516020818303038152906040529050600082848660405160200161191d9392919061264b565b60405160208183030381529060405290508f8e6001600160a01b0316336001600160a01b03167f10b55d68fbface02256fafde2dfb9d65364fc0186c67c07bdbf695c8e0b7261285856040516119749291906126bb565b60405180910390a4509e9d5050505050505050505050505050565b60065461199e82826001611c53565b604080516001600160a01b0384168152602081018390527f30385c845b448a36257a6a1716e6ad2e1bc2cbe333cde1e69fe849ad6511adfe910160405180910390a16001600660008282546119f391906122d1565b909155509092915050565b60008080611a10620151808504611dd0565b9196909550909350915050565b60606000611a2c8360026123f2565b611a379060026122d1565b67ffffffffffffffff811115611a4f57611a4f61210c565b6040519080825280601f01601f191660200182016040528015611a79576020820181803683370190505b509050600360fc1b81600081518110611a9457611a94612262565b60200101906001600160f81b031916908160001a905350600f60fb1b81600181518110611ac357611ac3612262565b60200101906001600160f81b031916908160001a9053506000611ae78460026123f2565b611af29060016122d1565b90505b6001811115611b6a576f181899199a1a9b1b9c1cb0b131b232b360811b85600f1660108110611b2657611b26612262565b1a60f81b828281518110611b3c57611b3c612262565b60200101906001600160f81b031916908160001a90535060049490941c93611b63816122a1565b9050611af5565b508315611bb95760405162461bcd60e51b815260206004820181905260248201527f537472696e67733a20686578206c656e67746820696e73756666696369656e746044820152606401611310565b9392505050565b60606000611bcd83611e6c565b600101905060008167ffffffffffffffff811115611bed57611bed61210c565b6040519080825280601f01601f191660200182016040528015611c17576020820181803683370190505b5090508181016020015b600019016f181899199a1a9b1b9c1cb0b131b232b360811b600a86061a8153600a8504945084611c2157509392505050565b6000828152602081905260409020600101546001600160a01b031615611cbb5760405162461bcd60e51b815260206004820152601d60248201527f43616e6e6f74206d696e7420616e2061737369676e656420746f6b656e0000006044820152606401611310565b6001600160a01b0383166000908152600160205260408120549003611cf357600160076000828254611ced91906122d1565b90915550505b604080516060810182523381526001600160a01b0385811660208084018281528615801586880190815260008a8152808552888120975188549088166001600160a01b031990911617885592516001978801805492511515600160a01b026001600160a81b03199093169190971617179094559182528381528482208054600283528684208985528352958320869055848252938501845592815291909120909101839055611dcb576001600160a01b0383166000908152600360205260408120805460019290611dc59084906122d1565b90915550505b505050565b60008080836226496581018262023ab1600483020590506004600362023ab18302010590910390600062164b09610fa0600185010205905060046105b58202058303601f019250600061098f8460500281611e2d57611e2d6126e9565b0590506000605061098f83020585039050600b820560301994909401606402929092018301996002600c90940290910392909201975095509350505050565b60008072184f03e93ff9f4daa797ed6e38ed64bf6a1f0160401b8310611eab5772184f03e93ff9f4daa797ed6e38ed64bf6a1f0160401b830492506040015b6d04ee2d6d415b85acef81000000008310611ed7576d04ee2d6d415b85acef8100000000830492506020015b662386f26fc100008310611ef557662386f26fc10000830492506010015b6305f5e1008310611f0d576305f5e100830492506008015b6127108310611f2157612710830492506004015b60648310611f33576064830492506002015b600a83106106725760010192915050565b600060208284031215611f5657600080fd5b81356001600160e01b031981168114611bb957600080fd5b600060208284031215611f8057600080fd5b5035919050565b60005b83811015611fa2578181015183820152602001611f8a565b50506000910152565b60008151808452611fc3816020860160208601611f87565b601f01601f19169290920160200192915050565b602081526000611bb96020830184611fab565b6020808252825182820181905260009190848201906040850190845b8181101561202b5783516001600160a01b031683529284019291840191600101612006565b50909695505050505050565b80356001600160a01b038116811461204e57600080fd5b919050565b60006020828403121561206557600080fd5b611bb982612037565b6000806020838503121561208157600080fd5b823567ffffffffffffffff8082111561209957600080fd5b818501915085601f8301126120ad57600080fd5b8135818111156120bc57600080fd5b8660208285010111156120ce57600080fd5b60209290920196919550909350505050565b600080604083850312156120f357600080fd5b8235915061210360208401612037565b90509250929050565b634e487b7160e01b600052604160045260246000fd5b600067ffffffffffffffff8084111561213d5761213d61210c565b604051601f8501601f19908116603f011681019082821181831017156121655761216561210c565b8160405280935085815286868601111561217e57600080fd5b858560208301376000602087830101525050509392505050565b6000602082840312156121aa57600080fd5b813567ffffffffffffffff8111156121c157600080fd5b8201601f810184136121d257600080fd5b61103d84823560208401612122565b821515815260406020820152600061103d6040830184611fab565b60008060006060848603121561221157600080fd5b505081359360208301359350604090920135919050565b600181811c9082168061223c57607f821691505b60208210810361225c57634e487b7160e01b600052602260045260246000fd5b50919050565b634e487b7160e01b600052603260045260246000fd5b634e487b7160e01b600052601160045260246000fd5b8181038181111561067257610672612278565b6000816122b0576122b0612278565b506000190190565b6000600182016122ca576122ca612278565b5060010190565b8082018082111561067257610672612278565b601f821115611dcb57600081815260208120601f850160051c8101602086101561230b5750805b601f850160051c820191505b8181101561232a57828155600101612317565b505050505050565b815167ffffffffffffffff81111561234c5761234c61210c565b6123608161235a8454612228565b846122e4565b602080601f831160018114612395576000841561237d5750858301515b600019600386901b1c1916600185901b17855561232a565b600085815260208120601f198616915b828110156123c4578886015182559484019460019091019084016123a5565b50858210156123e25787850151600019600388901b60f8161c191681555b5050505050600190811b01905550565b808202811582820484141761067257610672612278565b600060208083526000845461241d81612228565b8084870152604060018084166000811461243e576001811461245857612486565b60ff1985168984015283151560051b890183019550612486565b896000528660002060005b8581101561247e5781548b8201860152908301908801612463565b8a0184019650505b509398975050505050505050565b634e487b7160e01b600052600160045260246000fd5b634e487b7160e01b600052603160045260246000fd5b600081516124d2818560208601611f87565b9290920192915050565b6b02a34329020b93a34b9ba1d160a51b81526000875161250381600c850160208c01611f87565b7f20686572656279206772616e742074686520426f72726f7765723a2000000000600c918401918201528751612540816028840160208c01611f87565b7f2066756c6c20616e6420756e726573747269637465642072696768747320746f602892909101918201527f20757365207069656365206f6620776f726b2064657363726962656420756e6460488201526b032b9103a37b5b2b724b21d160a51b606882015286516125b9816074840160208b01611f87565b7f2e205468697320636c617573652077696c6c2062652076616c696420756e746960749290910191820152680361032b7321037b3160bd1b609482015261263e61262961262361261061261d81609d87018c6124c0565b600160fd1b815260010190565b896124c0565b866124c0565b682044444d4d5959595960b81b815260090190565b9998505050505050505050565b690222226a6acacacac9d160b51b81526000845161267081600a850160208901611f87565b8083019050600160fd1b80600a830152855161269381600b850160208a01611f87565b600b92019182015283516126ae81600c840160208801611f87565b01600c0195945050505050565b6040815260006126ce6040830185611fab565b82810360208401526126e08185611fab565b95945050505050565b634e487b7160e01b600052601260045260246000fdfea2646970667358221220f97f6aae07bca1db233388bc5eea5b865c9c37f0e4f510a23cbb255d7d0037b064736f6c63430008120033",
  "devdoc": {
    "errors": {
      "DRM__NotEnoughETH()": [
        {
          "details": "Errors"
        }
      ]
    },
    "events": {
      "TokenUriSet(string,uint256)": {
        "details": "Events"
      }
    },
    "kind": "dev",
    "methods": {
      "allowLending(uint256,uint256,uint256)": {
        "params": {
          "lendingTime": "time for how long permission will persist expressed in days",
          "price": "Amount of ETH (in Wei), for which license for this tokenId can be bought",
          "tokenId": "Identifier of certificate"
        }
      },
      "balanceOf(address)": {
        "params": {
          "owner": "Address for whom to query the balance"
        },
        "returns": {
          "_0": "Number of tokens owned by `owner`"
        }
      },
      "blockLending(uint256)": {
        "params": {
          "tokenId": "Identifier of certificate"
        }
      },
      "buyLicense(uint256,address)": {
        "params": {
          "borrower": "address whom will receive permission",
          "tokenId": "Identifier of certificate"
        }
      },
      "checkUpkeep(bytes)": {
        "params": {
          "upkeepNeeded": "returns true or false depending on 4 conditions"
        }
      },
      "emittedCount()": {
        "returns": {
          "_0": "emittedCount Number of tokens emitted"
        }
      },
      "getCertsBorrowers(uint256)": {
        "params": {
          "tokenId": "Identifier of certificate"
        }
      },
      "getClause(uint256,address)": {
        "params": {
          "borrower": "Address, which has rights to use specific piece of art described in certificate",
          "tokenId": "Identifier of certificate"
        }
      },
      "getLendingStatus(uint256)": {
        "params": {
          "tokenId": "Identifier of certificate"
        }
      },
      "getLicenseValidity(uint256,address)": {
        "params": {
          "borrower": "Address, which has rights to use specific piece of art described in certificate",
          "tokenId": "Identifier of certificate"
        }
      },
      "hasValid(address)": {
        "params": {
          "owner": "Address for whom to check the ownership"
        },
        "returns": {
          "_0": "True if `owner` has a valid token, false otherwise"
        }
      },
      "holdersCount()": {
        "returns": {
          "_0": "holdersCount Number of token unique holders"
        }
      },
      "isValid(uint256)": {
        "params": {
          "tokenId": "Identifier of the token"
        },
        "returns": {
          "_0": "True if the token is valid, false otherwise"
        }
      },
      "mintNFT(string)": {
        "details": "This function in future can be restricted with minting price to provide some profits for DRM protocol creators.",
        "params": {
          "createdTokenURI": "URI to assign for minted certificate"
        }
      },
      "name()": {
        "returns": {
          "_0": "Descriptive name of the tokens in this contract"
        }
      },
      "owner()": {
        "details": "Returns the address of the current owner."
      },
      "ownerOf(uint256)": {
        "params": {
          "tokenId": "Identifier of the token"
        },
        "returns": {
          "_0": "Address of the owner of `tokenId`"
        }
      },
      "renounceOwnership()": {
        "details": "Leaves the contract without owner. It will not be possible to call `onlyOwner` functions anymore. Can only be called by the current owner. NOTE: Renouncing ownership will leave the contract without an owner, thereby removing any functionality that is only available to the owner."
      },
      "revokeCertificate(uint256)": {
        "details": "This function in future can be restricted by voting and used only if major of users vote that specific certificate is plagiarism",
        "params": {
          "tokenId": "Identifier of certificate"
        }
      },
      "symbol()": {
        "returns": {
          "_0": "An abbreviated name of the tokens in this contract"
        }
      },
      "tokenURI(uint256)": {
        "params": {
          "tokenId": "Identifier of certificate"
        },
        "returns": {
          "_0": "URI for the certificate"
        }
      },
      "transferOwnership(address)": {
        "details": "Transfers ownership of the contract to a new account (`newOwner`). Can only be called by the current owner."
      }
    },
    "stateVariables": {
      "i_interval": {
        "details": "Variables"
      },
      "s_certs": {
        "details": "Mappings"
      }
    },
    "version": 1
  },
  "userdoc": {
    "events": {
      "Minted(address,uint256)": {
        "notice": "Event emitted when a token `tokenId` is minted for `owner`"
      },
      "Revoked(address,uint256)": {
        "notice": "Event emitted when token `tokenId` of `owner` is revoked"
      }
    },
    "kind": "user",
    "methods": {
      "allowLending(uint256,uint256,uint256)": {
        "notice": "Allows owner of tokenId(Certificate) to make this token borrowable by other users"
      },
      "balanceOf(address)": {
        "notice": "Count all tokens assigned to an owner"
      },
      "blockLending(uint256)": {
        "notice": "Allows owner of tokenId(Certificate) to make this token unborrowable"
      },
      "buyLicense(uint256,address)": {
        "notice": "Gives permission to borrower to use copyrights assigned to specific certificate marked by tokenId"
      },
      "checkUpkeep(bytes)": {
        "notice": "This is the function that the Chainlink Keeper nodes call to check if performing upkeep is needed"
      },
      "getCertsBorrowers(uint256)": {
        "notice": "Returns all active borrowers of specific certificate(tokenId)"
      },
      "getClause(uint256,address)": {
        "notice": "Returns clause for certain tokenId and borrower"
      },
      "getExpirationTime(uint256,address)": {
        "notice": "Tells if given certificate(tokenId) is allowed to be borrowed by other users"
      },
      "getLendingStatus(uint256)": {
        "notice": "Tells if given certificate(tokenId) is allowed to be borrowed by other users"
      },
      "getLicenseValidity(uint256,address)": {
        "notice": "Tells if given borrower is allowed to use given certificate(tokenId)"
      },
      "hasValid(address)": {
        "notice": "Check if an address owns a valid token in the contract"
      },
      "isValid(uint256)": {
        "notice": "Check if a token hasn't been revoked"
      },
      "mintNFT(string)": {
        "notice": "Mint a new certificate (Token/NFT)"
      },
      "ownerOf(uint256)": {
        "notice": "Get owner of a token"
      },
      "performUpkeep(bytes)": {
        "notice": "Once checkUpkeep() returns \"true\" this function is called to execute licenseStatusUpdater() functionIt iterates thru all tokenId's and borrowers per those tokens to remove all licenses that have expired"
      },
      "revokeCertificate(uint256)": {
        "notice": "Allows contract owner to revoke token with copyrights plagiarism"
      },
      "tokenURI(uint256)": {
        "notice": "URI to query to get the certificate's metadata"
      },
      "withdrawProceeds()": {
        "notice": "Allows lenders to withdraw their proceeds"
      }
    },
    "version": 1
  },
  "storageLayout": {
    "storage": [
      {
        "astId": 4066,
        "contract": "contracts/DigitalRightsMaykr.sol:DigitalRightsMaykr",
        "label": "_tokens",
        "offset": 0,
        "slot": "0",
        "type": "t_mapping(t_uint256,t_struct(Token)4061_storage)"
      },
      {
        "astId": 4071,
        "contract": "contracts/DigitalRightsMaykr.sol:DigitalRightsMaykr",
        "label": "_indexedTokenIds",
        "offset": 0,
        "slot": "1",
        "type": "t_mapping(t_address,t_array(t_uint256)dyn_storage)"
      },
      {
        "astId": 4077,
        "contract": "contracts/DigitalRightsMaykr.sol:DigitalRightsMaykr",
        "label": "_tokenIdIndex",
        "offset": 0,
        "slot": "2",
        "type": "t_mapping(t_address,t_mapping(t_uint256,t_uint256))"
      },
      {
        "astId": 4081,
        "contract": "contracts/DigitalRightsMaykr.sol:DigitalRightsMaykr",
        "label": "_numberOfValidTokens",
        "offset": 0,
        "slot": "3",
        "type": "t_mapping(t_address,t_uint256)"
      },
      {
        "astId": 4083,
        "contract": "contracts/DigitalRightsMaykr.sol:DigitalRightsMaykr",
        "label": "_name",
        "offset": 0,
        "slot": "4",
        "type": "t_string_storage"
      },
      {
        "astId": 4085,
        "contract": "contracts/DigitalRightsMaykr.sol:DigitalRightsMaykr",
        "label": "_symbol",
        "offset": 0,
        "slot": "5",
        "type": "t_string_storage"
      },
      {
        "astId": 4087,
        "contract": "contracts/DigitalRightsMaykr.sol:DigitalRightsMaykr",
        "label": "_emittedCount",
        "offset": 0,
        "slot": "6",
        "type": "t_uint256"
      },
      {
        "astId": 4089,
        "contract": "contracts/DigitalRightsMaykr.sol:DigitalRightsMaykr",
        "label": "_holdersCount",
        "offset": 0,
        "slot": "7",
        "type": "t_uint256"
      },
      {
        "astId": 4091,
        "contract": "contracts/DigitalRightsMaykr.sol:DigitalRightsMaykr",
        "label": "_creator",
        "offset": 0,
        "slot": "8",
        "type": "t_address"
      },
      {
        "astId": 26,
        "contract": "contracts/DigitalRightsMaykr.sol:DigitalRightsMaykr",
        "label": "_owner",
        "offset": 0,
        "slot": "9",
        "type": "t_address"
      },
      {
        "astId": 142,
        "contract": "contracts/DigitalRightsMaykr.sol:DigitalRightsMaykr",
        "label": "_status",
        "offset": 0,
        "slot": "10",
        "type": "t_uint256"
      },
      {
        "astId": 2834,
        "contract": "contracts/DigitalRightsMaykr.sol:DigitalRightsMaykr",
        "label": "s_lastTimeStamp",
        "offset": 0,
        "slot": "11",
        "type": "t_uint256"
      },
      {
        "astId": 2864,
        "contract": "contracts/DigitalRightsMaykr.sol:DigitalRightsMaykr",
        "label": "s_certs",
        "offset": 0,
        "slot": "12",
        "type": "t_mapping(t_uint256,t_struct(Certificate)2858_storage)"
      },
      {
        "astId": 2868,
        "contract": "contracts/DigitalRightsMaykr.sol:DigitalRightsMaykr",
        "label": "s_proceeds",
        "offset": 0,
        "slot": "13",
        "type": "t_mapping(t_address,t_uint256)"
      }
    ],
    "types": {
      "t_address": {
        "encoding": "inplace",
        "label": "address",
        "numberOfBytes": "20"
      },
      "t_array(t_address)dyn_storage": {
        "base": "t_address",
        "encoding": "dynamic_array",
        "label": "address[]",
        "numberOfBytes": "32"
      },
      "t_array(t_uint256)dyn_storage": {
        "base": "t_uint256",
        "encoding": "dynamic_array",
        "label": "uint256[]",
        "numberOfBytes": "32"
      },
      "t_bool": {
        "encoding": "inplace",
        "label": "bool",
        "numberOfBytes": "1"
      },
      "t_mapping(t_address,t_array(t_uint256)dyn_storage)": {
        "encoding": "mapping",
        "key": "t_address",
        "label": "mapping(address => uint256[])",
        "numberOfBytes": "32",
        "value": "t_array(t_uint256)dyn_storage"
      },
      "t_mapping(t_address,t_bool)": {
        "encoding": "mapping",
        "key": "t_address",
        "label": "mapping(address => bool)",
        "numberOfBytes": "32",
        "value": "t_bool"
      },
      "t_mapping(t_address,t_mapping(t_uint256,t_uint256))": {
        "encoding": "mapping",
        "key": "t_address",
        "label": "mapping(address => mapping(uint256 => uint256))",
        "numberOfBytes": "32",
        "value": "t_mapping(t_uint256,t_uint256)"
      },
      "t_mapping(t_address,t_string_storage)": {
        "encoding": "mapping",
        "key": "t_address",
        "label": "mapping(address => string)",
        "numberOfBytes": "32",
        "value": "t_string_storage"
      },
      "t_mapping(t_address,t_uint256)": {
        "encoding": "mapping",
        "key": "t_address",
        "label": "mapping(address => uint256)",
        "numberOfBytes": "32",
        "value": "t_uint256"
      },
      "t_mapping(t_uint256,t_struct(Certificate)2858_storage)": {
        "encoding": "mapping",
        "key": "t_uint256",
        "label": "mapping(uint256 => struct DigitalRightsMaykr.Certificate)",
        "numberOfBytes": "32",
        "value": "t_struct(Certificate)2858_storage"
      },
      "t_mapping(t_uint256,t_struct(Token)4061_storage)": {
        "encoding": "mapping",
        "key": "t_uint256",
        "label": "mapping(uint256 => struct ERC4671.Token)",
        "numberOfBytes": "32",
        "value": "t_struct(Token)4061_storage"
      },
      "t_mapping(t_uint256,t_uint256)": {
        "encoding": "mapping",
        "key": "t_uint256",
        "label": "mapping(uint256 => uint256)",
        "numberOfBytes": "32",
        "value": "t_uint256"
      },
      "t_string_storage": {
        "encoding": "bytes",
        "label": "string",
        "numberOfBytes": "32"
      },
      "t_struct(Certificate)2858_storage": {
        "encoding": "inplace",
        "label": "struct DigitalRightsMaykr.Certificate",
        "members": [
          {
            "astId": 2836,
            "contract": "contracts/DigitalRightsMaykr.sol:DigitalRightsMaykr",
            "label": "tokenIdToURI",
            "offset": 0,
            "slot": "0",
            "type": "t_string_storage"
          },
          {
            "astId": 2838,
            "contract": "contracts/DigitalRightsMaykr.sol:DigitalRightsMaykr",
            "label": "tokenIdToTime",
            "offset": 0,
            "slot": "1",
            "type": "t_uint256"
          },
          {
            "astId": 2840,
            "contract": "contracts/DigitalRightsMaykr.sol:DigitalRightsMaykr",
            "label": "tokenIdToPrice",
            "offset": 0,
            "slot": "2",
            "type": "t_uint256"
          },
          {
            "astId": 2842,
            "contract": "contracts/DigitalRightsMaykr.sol:DigitalRightsMaykr",
            "label": "tokenIdToBorrowable",
            "offset": 0,
            "slot": "3",
            "type": "t_bool"
          },
          {
            "astId": 2845,
            "contract": "contracts/DigitalRightsMaykr.sol:DigitalRightsMaykr",
            "label": "tokenIdToBorrowers",
            "offset": 0,
            "slot": "4",
            "type": "t_array(t_address)dyn_storage"
          },
          {
            "astId": 2849,
            "contract": "contracts/DigitalRightsMaykr.sol:DigitalRightsMaykr",
            "label": "tokenIdToBorrowToEnd",
            "offset": 0,
            "slot": "5",
            "type": "t_mapping(t_address,t_uint256)"
          },
          {
            "astId": 2853,
            "contract": "contracts/DigitalRightsMaykr.sol:DigitalRightsMaykr",
            "label": "tokenIdToBorrowerToClause",
            "offset": 0,
            "slot": "6",
            "type": "t_mapping(t_address,t_string_storage)"
          },
          {
            "astId": 2857,
            "contract": "contracts/DigitalRightsMaykr.sol:DigitalRightsMaykr",
            "label": "tokenIdToBorrowerToValidity",
            "offset": 0,
            "slot": "7",
            "type": "t_mapping(t_address,t_bool)"
          }
        ],
        "numberOfBytes": "256"
      },
      "t_struct(Token)4061_storage": {
        "encoding": "inplace",
        "label": "struct ERC4671.Token",
        "members": [
          {
            "astId": 4056,
            "contract": "contracts/DigitalRightsMaykr.sol:DigitalRightsMaykr",
            "label": "issuer",
            "offset": 0,
            "slot": "0",
            "type": "t_address"
          },
          {
            "astId": 4058,
            "contract": "contracts/DigitalRightsMaykr.sol:DigitalRightsMaykr",
            "label": "owner",
            "offset": 0,
            "slot": "1",
            "type": "t_address"
          },
          {
            "astId": 4060,
            "contract": "contracts/DigitalRightsMaykr.sol:DigitalRightsMaykr",
            "label": "valid",
            "offset": 20,
            "slot": "1",
            "type": "t_bool"
          }
        ],
        "numberOfBytes": "64"
      },
      "t_uint256": {
        "encoding": "inplace",
        "label": "uint256",
        "numberOfBytes": "32"
      }
    }
  }
}